:020000040800F2
:10000000000001201D4500086D4500086D450008F1
:100010006D4500086D4500086D45000800000000B2
:10002000000000000000000000000000813A00080D
:100030006D45000800000000213B00081144000845
:100040006D4500086D4500086D4500086D450008C8
:100050006D4500086D4500086D4500086D450008B8
:100060006D4500086D4500086D4500086D450008A8
:100070006D4500086D4500086D4500086D45000898
:100080006D4500086D4500086D4500086D45000888
:100090006D4500086D4500086D4500086D45000878
:1000A0006D450008194400086D4500086D450008BD
:1000B0006D4500086D4500086D4500086D45000858
:1000C0006D4500086D4500086D4500086D45000848
:1000D0006D4500086D4500086D4500086D45000838
:1000E0006D4500086D4500086D4500086D45000828
:1000F0006D4500086D4500086D4500086D45000818
:100100006D45000800000000000000006D4500087B
:100110006D4500086D4500086D4500086D450008F7
:100120006D4500086D4500086D4500086D450008E7
:100130006D4500086D45000800000000000000004B
:100140006D4500086D4500086D4500080000000081
:10015000000000000000000000000000000000009F
:100160006D4500086D4500086D4500086D450008A7
:100170006D4500086D4500086D4500086D45000897
:100180006D4500086D4500080000000000000000FB
:040190006D450008B1
:1001A00010B5054C237833B9044B13B10448AFF3B1
:1001B00000800123237010BD7400002000000000A7
:1001C000404E00080C4B43B10C480D4910B5AFF33D
:1001D00000800C48036823B910BD0A48036833B98E
:1001E0007047094B002BF7D0BDE810401847064B6D
:1001F000002BF5D0184700BF00000000404E00085B
:1002000078000020740000200000000000000000C2
:1002100001F0FF01102A2BDB10F0070F08D010F8B7
:10022000013B013A8B422DD010F0070F42B3F6D1BB
:10023000F0B441EA012141EA014122F007047FF0D4
:1002400000070023F0E80256083C85EA010586EA2B
:10025000010685FA47F5A3FA87F586FA47F6A5FA67
:1002600087F68EB9EED1F0BC01F0FF0102F0070273
:1002700032B110F8013B013A83EA010313B1F8D11E
:100280000020704701387047002D06BF35460338FF
:10029000073815F0010F07D1013015F4807F02BF38
:1002A000013015F4C03F0130F0BC0138704700BF89
:1002B00008B5074A136843F010031360032000F0E9
:1002C000BDFE002004F068F804F01EF8002008BD10
:1002D00000200240034A1168034B1B780B44136053
:1002E000704700BFE811002000000020014B186893
:1002F000704700BFE811002038B50446FFF7F6FF4D
:100300000546B4F1FF3F02D0044B1B781C44FFF7B5
:10031000EDFF401B8442FAD838BD00BF000000202A
:1003200038B50268936803F00303012B11D0002352
:10033000002B37D0936803F00D03012B11D0436CD1
:1003400043F010034364836C43F001038364012092
:1003500038BD136813F0010F01D10023E8E7012332
:10036000E6E70446936843F00203936003680322C0
:100370001A60FFF7BBFF054623689B6813F0010F67
:100380000ED0FFF7B3FF401B0228F5D9636C43F092
:1003900010036364A36C43F00103A364012038BD20
:1003A000002038BD002038BD03689A6812F00C0F99
:1003B00062D070B50446DA6812F0007F02D0C269DC
:1003C000012A38D060290CD023689A6812F0040FF3
:1003D00007D09A6812F0020F03D19A6842F0100217
:1003E0009A600C290CD023689A6812F0080F07D085
:1003F0009A6812F0020F03D19A6842F020029A60C4
:10040000602935D06C2931D10C25FFF76FFF0646E6
:1004100023689B681D422DD0FFF768FF801B0B28C7
:10042000F6D9636C43F010036364A36C43F00103DB
:10043000A364012070BD8269012AC3D1002219681A
:1004400011F0400F0ED10D498A4201D80132F6E772
:10045000636C43F010036364A36C43F00103A36473
:10046000012070BD40221A600C21ABE70425CCE7C7
:100470000825CAE7002070BD00207047FF930900DF
:1004800038B50268936803F00303012B10D00023F2
:10049000002B33D191681A4B194211D0436C43F0B1
:1004A00010034364836C43F001038364012038BD6F
:1004B000136813F0010F01D10023E9E70123E7E7F7
:1004C0000446936843F001039360FFF70FFF05466E
:1004D00023681B6813F0010F0ED1FFF707FF401BC5
:1004E0000228F5D9636C43F010036364A36C43F0F6
:1004F0000103A364012038BD002038BD002038BDB1
:100500003F00008070B596B000230093002800F0F3
:1005100047810446436C13F0100F51D1436CABB1CB
:10052000002023689A6812F0805F03D09B6813F064
:10053000005F46D0636C23F0120343F01003636442
:10054000A36C43F00103A36401203AE083640365D4
:10055000C36480F8403003F039FD23689B6813F0D2
:10056000805F01D00020DCE72046FFF7D9FE636CF6
:1005700013F0100FD5D10028D3D1636C23F4885326
:1005800023F0020343F0020363642268936823F0BC
:10059000405393602268936843F080539360814B8B
:1005A0001B68814AA2FB03239B0C03EB83035A00C5
:1005B0000092009B002BB4D0009B013B0093F8E716
:1005C0000020636C13F0100F40F0E180002840F031
:1005D000DE802368996811F0040140F0D880626CD5
:1005E00022F4817242F002026264B3F1A04F70D033
:1005F0006E4A93426BD06E4DB3F1A04F6BD06B4AF5
:1006000093426CD06B4A93426DD06B4A93426DD04B
:10061000002301932268936803F00303012B68D041
:1006200000236BB9019E2EB1B26802F00302012AC9
:1006300067D02BB9AB6823F4403362681343AB60D7
:10064000E2695303A56B012D01D04FF480510B4398
:10065000E1680B43A1680B43616A012957D0E26A44
:10066000012A0CD02168534DA94263D005F580754D
:10067000A9425FD022F48052216B0A4313432268BF
:10068000916811F00C0F0BD1D16821F4804121F059
:100690000201D160A169626B520042EA81321343C8
:1006A0002168CD68454A2A401343CB602369012B5A
:1006B00064D02268136B23F00F0313630023A36439
:1006C000636C23F0030343F00103636466E03C4D75
:1006D00092E73B4D90E703F5807301939AE74FF063
:1006E000A043019396E7344B019393E7314B019379
:1006F00090E7136813F0010F01D1002391E7012364
:100700008FE7326812F0010F93D0012391E732B9DD
:10071000A26A013A43EA424343F480339FE7626CA2
:1007200022F0220242F020026264A26C42F0010236
:10073000A26494E7B2F5307F11D0B2F5807F11D07A
:10074000B2F5E07F11D0B2F58A5F11D0B2F5845FC7
:1007500011D0B2F5865F8FD14FF4C0728CE74FF4A1
:10076000E07289E74FF4307286E74FF4807283E7D6
:100770004FF4707280E74FF4A0727DE721680B6B35
:1007800023F00F03226A013A13430B6396E7636C6D
:1007900023F0120343F010036364012016B070BD10
:1007A0000120FBE70C00002083DE1B43000100500A
:1007B00000070050000400500005005007C0F0FF83
:1007C0000003005003689B6813F0040F02D002235B
:1007D0001846704790F84030012B01D10223F7E70B
:1007E00010B50446012380F84030FFF749FE034668
:1007F000002840F09980626C22F4706222F00102BD
:1008000042F4807262642268B2F1A04F20D049495C
:100810008A421DD04849896811F01F0F1DD0B2F1DE
:10082000A04F1AD045498A4217D0616C41F480111B
:10083000616440498A4256D04049C968C1F3406169
:10084000C9B1616C21F4405141F48051616412E0FE
:100850003B49896811F01F0FE1D1616C21F48011CF
:100860006164D16811F0007F05D0616C21F44051C2
:1008700041F480516164616C11F4805F39D0A16CE6
:1008800021F00601A164002184F840101C211160B0
:100890002268B2F1A04F2FD026498A422CD0264997
:1008A000896811F01F0F2CD0B2F1A04F2ED0214932
:1008B0008A422BD02049896801F01F01052920D0E8
:1008C000B2F1A04F29D01B498A4226D01A49896823
:1008D00001F01F01092914D0B2F1A04F11D017491E
:1008E0008A4224D10DE04FF0A041C968C1F34061B4
:1008F000A6E70021A164C6E71149896811F01F0F1E
:10090000D2D1916841F00401916010E00C498968EE
:1009100001F01F010529D3D1F3E70949896801F0E6
:100920001F010929D8D1ECE7002284F8402018469D
:1009300010BD00BF0001005000070050000400502F
:100940000003005090F84030012B02D102231846DA
:10095000704710B50446012380F840306C21FFF742
:1009600023FD034620B1002284F84020184610BD24
:100970002046FFF7D5FC03460028F4D1626C22F430
:10098000885222F0010242F001026264EBE70000AB
:100990002DE9F0414669082E10D00368B3F1A04F4D
:1009A00027D04E4A934221D04D4A946814F01F0F2D
:1009B0002BD1DB6813F0010F1DD10C260368B3F1B6
:1009C000A04F32D0454A93422FD0454A926812F048
:1009D0001F0F2FD0B3F1A04F2CD0424A934229D001
:1009E0003E4A934244D03F4BDF6824E002F5007258
:1009F000DBE73D4AD9E7436C43F02003436400231F
:100A000080F840300120BDE8F081936813F4404F36
:100A100001D10C26D2E7436C43F02003436400234A
:100A200080F840300120BDE8F0812F4A926812F032
:100A30001F0FCFD1DF680D460446FFF757FC8046F5
:100A400023681A68164216D1B5F1FF3FF8D02DB1D0
:100A5000FFF74CFCA0EB08008542F1D2636C43F039
:100A600004036364002384F840300320BDE8F08170
:100A70004FF0A043B8E7626C42F400726264DA6837
:100A800012F4406F1FD117F4005F1CD11A6812F0E6
:100A9000080F18D09A6812F0040F0CD1626C22F47F
:100AA00080726264626C12F4805F0CD1626C42F0FE
:100AB0000102626407E0626C42F020026264A26C90
:100AC00042F00102A26417F4804F03D11E6000209F
:100AD000BDE8F0810020BDE8F08100BF00010050BA
:100AE0000007005000040050000300500368186C19
:100AF0007047000070B497B00022009290F8402038
:100B0000012A00F0C9810346012280F840200068D4
:100B1000826812F0040F40F0B2814A68042A31D88A
:100B2000046B02EB420255001F22AA4024EA020293
:100B30000C68AC40224302631868826812F00C0F04
:100B400068D10A68092A4ED9846902EB42021E3A2A
:100B50000725954024EA05048D6805FA02F2224330
:100B6000826148691C68E268C2F3C102520000FA5F
:100B700002F208690138032800F29980DFE800F0EA
:100B80004076818C092A0ED8446B02EB4202550054
:100B90001E3D1F22AA4024EA02020C6804FA05F551
:100BA0002A434263C8E70E2A0ED8846B02EB420246
:100BB00055003C3D1F22AA4024EA02020C6804FAB8
:100BC00005F52A438263B7E7C46B02EB4202550086
:100BD0005A3D1F22AA4024EA02020C6804FA05F5D5
:100BE0002A43C263A8E7446902EB42020725954005
:100BF00024EA05048D6805FA02F222434261B0E757
:100C0000206EA64D0540086842EA8062154345F013
:100C1000004525661868826802F00302012A79D02F
:100C20000022002A40F03681CC68012C7AD0D0F81E
:100C3000B0400E680125B54024EA0504C0F8B04074
:100C40001868B0F1A04F00F09880954CA04200F0D9
:100C50009280944D0C68102C00F09180112C00F0C3
:100C6000BB80122C00F0BD8000200DE1606E8B4D2A
:100C70000540086842EA8062154345F00045656614
:100C8000C8E7A06E854D0540086842EA80621543BA
:100C900045F00045A566BDE7E56E804828400D6833
:100CA00042EA8562024342F00042E266B2E7226E07
:100CB00002F0F8420868B2EB806F1CD01868426EF0
:100CC00002F0F8420C68B2EB846F19D01868826E9B
:100CD00002F0F8420C68B2EB846F16D01868C26E4E
:100CE00002F0F8420C68B2EB846F93D1C26E22F02E
:100CF0000042C2668EE7226E22F000422266DDE7E5
:100D0000426E22F000424266E0E7826E22F000422C
:100D10008266E3E7026812F0010F01D1002280E74A
:100D200001227EE7D0F8B0400E680125B5402C4383
:100D3000C0F8B040086809280ED91E68B46900EBF5
:100D400040001B380725854024EA05048D6805FA14
:100D500000F02043B06173E71E687469013000EB56
:100D600040000725854024EA05048D6805FA00F057
:100D70002043706164E74C4D6CE74B4D6AE7AE6809
:100D800016F4000F7FF46AAFB0F1A04F2FD0444C9F
:100D9000A04230D0454CA04231D0454CA04231D089
:100DA000002001901C68A06800F0030001282CD0EE
:100DB000002A5ED1019E36B1B06800F00300012820
:100DC00029D0002A55D10A68102A2AD0112A41D0E8
:100DD000122A48D0002057E0AE6816F0807FD3D0AA
:100DE0003FE7AC6814F4800FCED000204CE000F553
:100DF00080700190D6E74FF0A0400190D2E72C48D8
:100E00000190CFE729480190CCE7206810F0010F4E
:100E1000CED00122CCE7306810F0010FD1D00122F2
:100E2000CFE7B4F1A04FD1D1AA6842F40002AA6082
:100E3000204A12682049B2FBF1F10A2202FB01F2BA
:100E4000009202E0009A013A0092009A002AF9D139
:100E5000002019E0B4F1A04FBAD1AA6842F0807224
:100E6000AA60002010E0AA6842F48002AA60002074
:100E70000AE05A6C42F020025A64012004E05A6CE5
:100E800042F020025A640120002283F8402017B06B
:100E900070BC70470020F7E70220F8E700F0FF83FE
:100EA00000010050000700500003005000040050F3
:100EB000000500500C00002040420F0070B497B0B5
:100EC00003460268B2F1A04F4ED0574882424FD03D
:100ED0005648824250D05648824250D00022019259
:100EE000019A002A00F09B8093F84000012800F04E
:100EF0009880012083F840001868846814F0040F7B
:100F00007AD1946814F0040F76D1B0F1A04F3BD0A1
:100F1000454CA04236D047480C68002C44D0846829
:100F200024F460444D685E6B45EA46352C4384608A
:100F30001D68AC6804F00304012C27D00024002CA9
:100F400065D1956805F00305012D27D0002C60D1EF
:100F5000826822F4716222F00F020C6889682143D2
:100F60000A43826000204CE002F580720192B7E7EC
:100F70004FF0A0420192B3E72D4A0192B0E72B4A0D
:100F80000192ADE72C48C7E72B48C5E72C6814F061
:100F9000010F01D10024D2E70124D0E7126812F03A
:100FA000010FD3D00124D1E7816821F46041816031
:100FB0001C68A16801F0030101290FD0002151BB79
:100FC000946804F00304012C10D031BB826822F431
:100FD000716222F00F028260002012E0216811F09D
:100FE000010F01D10021EAE70121E8E7126812F0C0
:100FF000010FEAD00121E8E75A6C42F020025A645E
:101000000120002283F8402017B070BC70470020F8
:10101000F7E70020F5E70020F3E70020F1E70120E3
:10102000F2E70220F0E700BF00010050000400508A
:10103000000500500007005000030050074AD36825
:1010400023F4E0631B041B0C000200F4E06018436F
:1010500040F0BF6040F40030D060704700ED00E029
:1010600030B4164BDB68C3F30223C3F10704042C2E
:1010700028BF04241D1D062D17D9033B012505FAA1
:1010800004F4013C2140994005FA03F3013B13406D
:10109000194300280BDB0901C9B200F1604000F5DB
:1010A000614080F8001330BC70470023E6E700F091
:1010B0000F000901C9B2024B1954F4E700ED00E03A
:1010C00014ED00E0420900F01F00012303FA00F0D4
:1010D000014B43F82200704700E100E00138B0F115
:1010E000807F0AD2064B5860F021064A82F823100E
:1010F0000020986007221A6070470120704700BFE7
:1011000010E000E000ED00E0042805D0054A136877
:1011100023F0040313607047024A136843F004038A
:101120001360704710E000E0F0B583B0002393E057
:101130004FEAD30E0EF1080E50F82E4003F00706CA
:10114000B6000F27B74024EA07040F6907FA06F62E
:10115000344340F82E408EE086682640CF6807FA78
:101160000EF73E438660466826EA05054E68C6F3DC
:1011700000169E4035434560C5682C408D6805FAD1
:101180000EF52C43C4604C6814F0805F63D04F4C64
:10119000A56945F00105A561A46904F00104019465
:1011A000019C9C08A61C4A4D55F8265003F00306E6
:1011B000B7000F26BE4025EA0605B0F1904F77D064
:1011C000444EB04276D006F58066B04274D006F543
:1011D0008066B04272D006F58066B04270D006F5E7
:1011E0008066B0426ED006F58066B0425ED00726BB
:1011F000BE4035430234364E46F82450364C2568FE
:10120000D44305EA04064F6817F4803F01D042EA50
:101210000506314D2E606D6804EA05064F6817F427
:10122000003F01D042EA05062B4D6E60AD6804EA2E
:1012300005064F6817F4801F01D042EA0506264DC7
:10124000AE60ED682C404E6816F4001F01D042EAF3
:101250000504214AD46001330A6832FA03F433D01A
:1012600001259D402A40F6D04C68022C3FF460AF27
:10127000122C3FF45DAF06684FEA430E032404FAD4
:101280000EF4E44326404F6807F0030707FA0EF711
:101290003E4306604E68771E012F7FF65DAF112E2C
:1012A0003FF45AAF122E7FF467AF55E706269FE74B
:1012B00000269DE701269BE7022699E7032697E78C
:1012C000042695E7052693E703B0F0BD0010024021
:1012D0000000014000040048000401400AB9816296
:1012E000704781617047000070B582B004460368A2
:1012F00013F0010F5ED0B34B5B6803F00C03042BBB
:1013000041D0B04B5B6803F00C03082B34D063680A
:10131000B3F5803F00F08980002B40F08C8003F112
:10132000804303F504331A6822F480321A601A6885
:1013300022F480221A606368002B00F09680FEF78A
:10134000D5FF05464FF4003393FAA3F39D4B19687C
:101350004FF4003393FAA3F3B3FA83F303F01F03BC
:10136000012202FA03F3194224D1FEF7BFFF401B0A
:101370006428E7D90320BAE2924B5B6803F4C033D8
:10138000B3F5803FC3D14FF4003393FAA3F38D4BF1
:1013900019684FF4003393FAA3F3B3FA83F303F01D
:1013A0001F03012202FA03F3194203D06368002BE2
:1013B00000F09082236813F0020F00F09E80814BB2
:1013C0005B6813F00C0F74D07E4B5B6803F00C036A
:1013D000082B67D0E368002B00F0CD80012292FA41
:1013E000A2F3B3FA83F303F1845303F584139B0050
:1013F0001A60FEF77BFF0546022393FAA3F3714BB5
:101400001968022393FAA3F3B3FA83F303F01F03DB
:10141000012202FA03F3194240F09E80FEF766FFB4
:10142000401B0228E8D9032061E2664A136843F4AE
:10143000803313607FE7B3F5A02F09D0614B1A68A2
:1014400022F480321A601A6822F480221A6072E74D
:1014500003F18043A3F53C331A6842F480221A60FA
:101460001A6842F480321A6065E7FEF73FFF0546CE
:101470004FF4003393FAA3F3524B19684FF400333F
:1014800093FAA3F3B3FA83F303F01F03012202FAE2
:1014900003F319428ED0FEF729FF401B6428E7D9D9
:1014A000032024E2474B5B6803F4C033B3F5004FDD
:1014B00090D1022393FAA3F3424B1968022393FAC3
:1014C000A3F3B3FA83F303F01F03012202FA03F339
:1014D000194204D0E368934201D0012007E2394861
:1014E000036823F0F8032169F82292FAA2F2B2FA13
:1014F00082F201FA02F213430360236813F0080F2B
:1015000000F08C806369002B60D0012191FAA1F278
:10151000B2FA82F22C4B13449B001960FEF7E6FEF0
:101520000546022393FAA3F293FAA3F293FAA3F2E5
:10153000244A516A93FAA3F3B3FA83F303F01F0327
:10154000012202FA03F3194268D1FEF7CFFE401BD5
:101550000228E6D90320CAE11A48036823F0F803F9
:101560002169F82292FAA2F2B2FA82F201FA02F2A8
:1015700013430360C1E7012393FAA3F3B3FA83F3A0
:1015800003F1845303F584139B0000221A60FEF7D5
:10159000ADFE0546022393FAA3F30A4B1968022312
:1015A00093FAA3F3B3FA83F303F01F03012202FAC1
:1015B00003F31942A1D0FEF799FE401B0228E9D996
:1015C000032094E10010024020819010012292FA41
:1015D000A2F2B2FA82F2C04B13449B0000221A60BE
:1015E000FEF784FE0546022393FAA3F293FAA3F2D0
:1015F00093FAA3F2B94A516A93FAA3F3B3FA83F3C5
:1016000003F01F03012202FA03F3194206D0FEF78A
:101610006DFE401B0228E6D9032068E1236813F021
:10162000040F00F0B380AD4BDB6913F0805F0BD18A
:10163000AA4BDA6942F08052DA61DB6903F0805329
:101640000193019B012500E00025A54B1B6813F4C5
:10165000807F16D0A368012B27D063BB03F18043A2
:1016600003F504331A6A22F001021A621A6A22F0A0
:1016700004021A62A368002B5BD0FEF737FE064611
:1016800045E0974A136843F480731360FEF72EFE1B
:101690000646934B1B6813F4807FDBD1FEF726FED2
:1016A000801B6428F5D9032021E18C4A136A43F09A
:1016B00001031362DEE7052B09D0884B1A6A22F07A
:1016C00001021A621A6A22F004021A62D2E7834BFC
:1016D0001A6A42F004021A621A6A42F001021A629D
:1016E000C8E77E4B196A022393FAA3F3B3FA83F394
:1016F00003F01F03012202FA03F3194245D1FEF75A
:10170000F5FD801B41F28833984200F2EB80022302
:1017100093FAA3F293FAA3F3B3FA83F35B0943F0CA
:101720000203022BDDD0022393FAA3F36B4B596A19
:10173000D9E7FEF7DBFD064615E0684B196A022380
:1017400093FAA3F3B3FA83F303F01F03012202FA1F
:1017500003F3194219D0FEF7C9FD801B41F288330B
:10176000984200F2C180022393FAA3F293FAA3F302
:10177000B3FA83F35B0943F00203022BDDD00223AB
:1017800093FAA3F3554B596AD9E7B5BBA369002B6C
:1017900000F0AC80514A526802F00C02082A00F0B6
:1017A000A880022B2FD04FF0807393FAA3F3B3FAE3
:1017B00083F303F1845303F584139B0000221A6022
:1017C000FEF794FD04464FF0007393FAA3F3434BE6
:1017D00019684FF0007393FAA3F3B3FA83F303F09D
:1017E0001F03012202FA03F3194271D0FEF77EFDB6
:1017F000001B0228E7D9032079E0384AD36923F097
:101800008053D361C2E74FF0807393FAA3F3B3FA26
:1018100083F303F1845303F584139B0000221A60C1
:10182000FEF764FD05464FF0007393FAA3F32B4BCC
:1018300019684FF0007393FAA3F3B3FA83F303F03C
:101840001F03012202FA03F3194206D0FEF74EFDF0
:10185000401B0228E7D9032049E0204AD36A23F03D
:101860000F03616A0B43D362536823F47613216A32
:10187000E06901430B4353604FF0807393FAA3F385
:10188000B3FA83F303F1845303F584139B0001221D
:101890001A60FEF72BFD04464FF0007393FAA3F392
:1018A0000E4B19684FF0007393FAA3F3B3FA83F366
:1018B00003F01F03012202FA03F3194206D1FEF7D7
:1018C00015FD001B0228E7D9032010E000200EE0E0
:1018D00000200CE001200AE020819010001002405E
:1018E00000700040032002E0032000E0002002B06E
:1018F00070BD0120FBE700BF184B5B6803F00C02D2
:10190000082A29D110B403F470114FF4701292FA1E
:10191000A2F2B2FA82F221FA02F2114CA05C0F4A52
:10192000D26A02F00F020F2191FAA1F1B1FA81F10E
:10193000CA402244127C13F4803F07D1094BB3FB09
:10194000F2F303FB00F05DF8044B7047054BB3FB6B
:10195000F2F303FB00F0F6E7024870470010024084
:10196000584E000800127A00704B1B6803F0070302
:101970008B420CD26D4A136823F007030B431360AC
:10198000136803F00703994201D00120704770B536
:10199000036813F0020F06D0654A536823F0F00382
:1019A0008468234353600D460446036813F0010F17
:1019B0007AD04368012B2FD0022B42D0022292FA18
:1019C000A2F25B4A1068022292FAA2F2B2FA82F202
:1019D00002F01F02012101FA02F2104200F0A4807D
:1019E00053494A6822F0030213434B60FEF77EFC22
:1019F00006466368012B39D0022B46D04C4B5B68FE
:101A000013F00C0F50D0FEF771FC801B41F28833AD
:101A10009842F3D9032070BD4FF4003292FAA2F23B
:101A2000434A10684FF4003292FAA2F2B2FA82F2FC
:101A300002F01F02012101FA02F21042D0D101206E
:101A400070BD4FF0007292FAA2F2394A10684FF05E
:101A5000007292FAA2F2B2FA82F202F01F0201219F
:101A600001FA02F21042BBD1012070BD304B5B681D
:101A700003F00C03042B17D0FEF738FC801B41F257
:101A800088339842F2D9032070BD294B5B6803F07C
:101A90000C03082B08D0FEF729FC801B41F2883389
:101AA0009842F2D9032070BD204B1B6803F0070356
:101AB0009D420CD21D4A136823F007032B43136089
:101AC000136803F007039D4201D0012070BD236815
:101AD00013F0040F06D0164A536823F4E063E1685C
:101AE0000B435360236813F0080F07D0104A536864
:101AF00023F46053216943EAC1035360FFF7FCFEFE
:101B00000B4B5B6803F0F003F02292FAA2F2B2FAF8
:101B100082F2D340074AD35CD840074B18600020BC
:101B200002F03AFC002070BD012070BD0020024090
:101B300000100240BC4E00080C000020014B186849
:101B4000704700BF0C00002008B5FFF7F7FF074BF8
:101B50005B6803F4E0634FF4E06292FAA2F2B2FA37
:101B600082F2D340024AD35CD84008BD0010024044
:101B7000CC4E000808B5FFF7E1FF074B5B6803F4A4
:101B800060534FF4605292FAA2F2B2FA82F2D3405A
:101B9000024AD35CD84008BD00100240CC4E000879
:101BA0000F2303600B4B5A6802F0030242605A682D
:101BB00002F0F00282605A6802F4E062C2605B6880
:101BC000DB0803F4E0630361034B1B6803F00703C6
:101BD0000B6070470010024000200240F0B583B057
:101BE0000446036813F4803F48D0A14BDB6913F02F
:101BF000805F40F022819E4BDA6942F08052DA61C8
:101C0000DB6903F080530193019B0125994B1B680D
:101C100013F4807F00F01381954B1B6A13F440731B
:101C200022D0626802F4407293421DD09048016A4B
:101C300021F440764FF4803393FAA3F2B2FA82F2A1
:101C40008D4F3A4492004FF0010EC2F800E093FA33
:101C5000A3F3B3FA83F33B449B0000221A600662AD
:101C600011F0010F40F00081814A136A23F44073A0
:101C700061680B431362002D40F02881236813F044
:101C8000010F06D07A4A136B23F00303A1680B43BC
:101C90001363236813F0020F06D0754A136B23F405
:101CA0004033E1680B431363236813F0040F06D03D
:101CB0006F4A136B23F4402321690B43136323689A
:101CC00013F0200F06D06A4A136B23F01003E1696A
:101CD0000B431363236813F4003F06D0644A536830
:101CE00023F48003616D0B435360236813F0400FAE
:101CF00006D05F4A136B23F02003216A0B43136362
:101D0000236813F4802F06D0594A136B23F0400345
:101D1000616A0B431363236813F0080F06D0544A1B
:101D2000136B23F4401361690B431363236813F0AF
:101D3000100F06D04E4A136B23F44003A1690B43E6
:101D40001363236813F4007F06D0494A536823F4D1
:101D50000003216B0B435360236813F0800F06D000
:101D6000434AD36A23F4F873A16A0B43D36223680E
:101D700013F4807F06D03E4AD36A23F47853E16A95
:101D80000B43D362236813F4805F06D0384A136B89
:101D900023F48073616B0B431363236813F4005FB8
:101DA00006D0334A136B23F40073216C0B43136387
:101DB000236813F4801F06D02D4A136B23F0807321
:101DC000A16B0B431363236813F4001F06D0284A4A
:101DD000136B23F00073E16B0B431363236813F45D
:101DE000800F06D0224A136B23F48063616C0B438F
:101DF0001363236813F4000F06D01D4A136B23F4FA
:101E00000063A16C0B431363236813F0807F06D03B
:101E1000174A136B23F40053E16C0B4313632368DD
:101E200013F0007F59D0124A136B23F40043216D45
:101E30000B431363002003B0F0BD0025E6E60D4A16
:101E4000136843F480731360FEF750FA0646094B9B
:101E50001B6813F4807F7FF4DFAEFEF747FA801B28
:101E60006428F4D90320E6E7FEF740FA06461BE0B3
:101E7000001002400070004000819010184B196A59
:101E8000022393FAA3F3B3FA83F303F01F030122AF
:101E900002FA03F319427FF4E7AEFEF727FA801B3C
:101EA00041F28833984216D8022393FAA3F293FAA8
:101EB000A3F3B3FA83F35B0943F00203022BDDD0F3
:101EC000022393FAA3F3064B596AD9E7D36923F0A7
:101ED0008053D361D2E60320ADE70020ABE700BF1B
:101EE0000010024070470268D36843F00103D360DA
:101EF0000268136843F001031360002070477047C5
:101F000070477047704710B5044603681A6912F0AD
:101F1000020F11D0DA6812F0020F0DD06FF002023A
:101F20001A610123037703689B6913F0030F79D0CB
:101F3000FFF7E6FF0023237723681A6912F0040FE6
:101F400012D0DA6812F0040F0ED06FF004021A619A
:101F50000223237723689B6913F4407F68D02046CF
:101F6000FFF7CEFF0023237723681A6912F0080FCA
:101F700012D0DA6812F0080F0ED06FF008021A6162
:101F8000042323772368DB6913F0030F57D020461F
:101F9000FFF7B6FF0023237723681A6912F0100FAA
:101FA00012D0DA6812F0100F0ED06FF010021A6122
:101FB000082323772368DB6913F4407F46D020464B
:101FC000FFF79EFF0023237723681A6912F0010FA1
:101FD00003D0DA6812F0010F3FD123681A6912F0BA
:101FE000800F03D0DA6812F0800F3DD123681A69A0
:101FF00012F4807F03D0DA6812F0800F3BD123689F
:102000001A6912F0400F03D0DA6812F0400F39D18C
:1020100023681A6912F0200F03D0DA6812F0200F3B
:1020200037D110BDFFF76BFF2046FFF76AFF81E74E
:102030002046FFF764FF2046FFF763FF92E7204644
:10204000FFF75DFF2046FFF75CFFA3E72046FFF7A1
:1020500056FF2046FFF755FFB4E76FF001021A6103
:10206000204602F0D3F8B8E76FF080021A612046EC
:1020700000F098F8BAE76FF480721A61204600F019
:1020800092F8BCE76FF040021A612046FFF73AFF72
:10209000BEE76FF020021A61204600F082F8C0E728
:1020A0000368324A904212D0B0F1804F0FD0A2F5AF
:1020B000943290420BD002F58062904207D002F534
:1020C0009632904203D002F5E052904203D123F0C1
:1020D00070034A681343254A90421ED0B0F1804FE6
:1020E0001BD0A2F59432904217D002F58062904244
:1020F00013D002F5963290420FD002F54062904222
:102100000BD002F58062904207D002F580629042C7
:1021100003D002F50062904203D123F44073CA68F1
:10212000134323F080034A69134303608B68C3623F
:102130000B6883620D4B984213D003F500639842FD
:102140000FD003F5406398420BD003F580639842AB
:1021500007D003F58063984203D003F500639842EB
:1021600001D10B690363012343617047002C0140D7
:10217000A8B110B5044690F83D305BB1022384F855
:102180003D30211D2068FFF78BFF012384F83D308F
:10219000002010BD80F83C30FFF7A4FEEEE70120E0
:1021A000704770477047704738B5044683680269C6
:1021B000134342691343C2691343016808689B4A89
:1021C000024013430B602268536823F44053E168D4
:1021D0000B435360A369226A134321688A6822F47F
:1021E000306213438B602568914B9D421FD0914B09
:1021F0009D422FD0904B9D4246D0904B9D425DD04A
:102200008F4B9D4274D01023E269B2F5004F00F06D
:102210008B80082B00F20781DFE813F0CE00D90095
:10222000E4000501F000050105010501FB0003F5CF
:1022300058431B6B03F00303032B09D8DFE803F0BB
:10224000020406720123DFE70423DDE70823DBE74E
:102250001023D9E703F5E6331B6B03F44033B3F5E2
:10226000803F0BD007D9B3F5003F09D0B3F5403F0D
:1022700008D10223C8E72BB90023C5E70423C3E72D
:102280000823C1E71023BFE703F5E4331B6B03F416
:102290004023B3F5802F0BD007D9B3F5002F09D019
:1022A000B3F5402F08D10223AEE72BB90023ABE7EB
:1022B0000423A9E70823A7E71023A5E703F5E233E2
:1022C0001B6B03F44013B3F5801F0BD007D9B3F594
:1022D000001F09D0B3F5401F08D1022394E72BB9A2
:1022E000002391E704238FE708238DE710238BE772
:1022F00003F5E0331B6B03F44003B3F5800F0BD001
:1023000007D9B3F5000F09D0B3F5400F08D1022368
:102310007AE72BB9002377E7042375E7082373E7EF
:10232000102371E702236FE7082B42D8DFE803F0A0
:10233000051722412D4141413800FFF705FC626835
:10234000530803EB4003B3FBF2F39BB2002023F0EE
:102350000F02C3F3420313432268D36038BDFFF773
:1023600009FC6268530803EB4003B3FBF2F39BB232
:102370000020ECE76268530803F5740303F510537B
:10238000B3FBF2F39BB20020E1E7FFF7B5FA626816
:10239000530803EB4003B3FBF2F39BB20020D6E7F4
:1023A0006268530803F58033B3FBF2F39BB200205D
:1023B000CDE701200023CAE7FFF7C6FB636800EB07
:1023C0005300B0FBF3F080B2E860002038BDFFF7A7
:1023D000D1FB636800EB5300B0FBF3F080B2E86020
:1023E000002038BD6268530803F5F40303F59053E9
:1023F000B3FBF2F39BB2EB60002038BDFFF77CFA31
:10240000636800EB5300B0FBF3F080B2E86000209B
:1024100038BD6268530803F50043B3FBF2F39BB287
:10242000EB60002038BD012038BD00BFF369FFEF2D
:10243000003801400044004000480040004C00408B
:1024400000500040436A13F0010F06D00268536841
:1024500023F40033816A0B435360436A13F0020F85
:1024600006D00268536823F48033C16A0B4353607B
:10247000436A13F0040F06D00268536823F48023E4
:10248000016B0B435360436A13F0080F06D00268D8
:10249000536823F40043416B0B435360436A13F0CA
:1024A000100F06D00268936823F48053816B0B43AE
:1024B0009360436A13F0200F06D00268936823F4F8
:1024C0000053C16B0B439360436A13F0400F0AD073
:1024D0000268536823F48013016C0B435360036C50
:1024E000B3F5801F0BD0436A13F0800F06D002684B
:1024F000536823F40023816C0B43536070470268D8
:10250000536823F4C003416C0B435360EBE72DE9A0
:10251000F04105460F4616469846069C2B68DB6937
:1025200037EA03030CBF01230023B3421ED1B4F1E9
:10253000FF3FF3D02CB1FDF7D9FEA0EB0800844299
:10254000ECD22A68136823F4D07313602A68936866
:1025500023F001039360202385F8693085F86A3001
:10256000002385F868300320BDE8F0810020BDE835
:10257000F0812DE9F04182B01E4690F86930DBB25F
:10258000202B04D00223184602B0BDE8F081044697
:102590000D46904600294ED0002A4ED090F8683063
:1025A000012B01D10223EEE7012380F868300023DC
:1025B000C366212380F86930FDF798FE0746A4F82A
:1025C0005080A4F8528003E023682A781A850135E8
:1025D000B4F852309BB2E3B1B4F852309BB2013B35
:1025E0009BB2A4F8523000963B4600228021204640
:1025F000FFF78DFF18BBA368B3F5805FE4D12369B3
:10260000002BE1D1226835F8023BC3F308031385A0
:10261000DEE700963B46002240212046FFF777FF89
:10262000034608B10323AEE7202284F86920002284
:1026300084F86820A7E70123A5E70123A3E7032384
:10264000A1E730B583B004460023C366FDF74EFE14
:10265000054623681B6813F0080F0ED123681B681A
:1026600013F0040F17D1202384F8693084F86A30FE
:10267000002084F8680003B030BD6FF07E43009303
:10268000034600224FF400112046FFF740FF0028C8
:10269000E4D00320EFE76FF07E4300932B46002247
:1026A0004FF480012046FFF732FF0028DBD00320E3
:1026B000E1E778B310B5044690F869300BB32423F2
:1026C00084F869302268136823F001031360204600
:1026D000FFF76AFD01281FD0636ABBB922685368FF
:1026E00023F4904353602268936823F02A03936095
:1026F0002268136843F0010313602046FFF7A1FF2F
:1027000010BD80F8683001F0E3FED8E72046FFF7FF
:1027100099FEE3E70120704710BD842801D0033003
:10272000704700207047EFF30580003018BF01208C
:10273000704708B500F0D2FD002008BDF0B585B0A7
:102740000F46446805680669B0F90800FFF7E5FF21
:1027500003AB019300903B46B2B22946204600F0FD
:102760008BFD012802D1039805B0F0BD0020FBE7E6
:1027700008B5034600B90123184600F0F7FE002013
:1027800008BD08B500224168006800F0C3F908BD23
:1027900030B585B00446019100230393154602B974
:1027A0000125FFF7C0FFA8B1002303AA01A9204615
:1027B00000F098FA012801D0FF2014E0039BA3B198
:1027C0004FF080520B4B1A60BFF34F8FBFF36F8FE8
:1027D000002008E000232A4601A9204600F0BEF9A7
:1027E000012804D0FF2005B030BD0020FBE7002009
:1027F000F9E700BF04ED00E070B584B00446029133
:1028000000230193F9B10D46164600230393B2F15C
:10281000FF3F21D002B91E46FFF785FF10B303AA80
:1028200001A9284600F0A6FB012818D00023009338
:10283000039B13B34FF08052164B1A60BFF34F8FB8
:10284000BFF36F8F19E004AB802243F8102D93E89B
:10285000070084E8070014E04FF0FF36DCE71023A0
:102860000093E5E70023324601A9284600F0AAFAC2
:10287000012809D05EB9002300939DE8070084E891
:102880000700204604B070BD10230093F5E74023F5
:10289000F2E700BF04ED00E008B500F0CDFF01282D
:1028A00001D001F06FF908BD00F1080343604FF05B
:1028B000FF328260C360036100230360704700231E
:1028C0000361704743684B609A688A609A685160F8
:1028D00099600861036801330360704730B40D6884
:1028E000B5F1FF3F02D000F1080202E0026904E006
:1028F0001A4653681C68A542FAD253684B60996027
:102900008A605160086103680133036030BC70471E
:1029100003694268816891608268416851605A68C1
:10292000904205D000220261186801381860704793
:1029300082685A60F6E710B5044601F0B3F8A26B5E
:10294000E36B9A4204D0002401F0CEF8204610BD7B
:102950000124F9E710B5044601F0A4F8A36B23B1F4
:10296000002401F0C1F8204610BD0124F9E770B53C
:1029700004461646856B026C4AB9036853BB40682F
:1029800000F0C2FF002363600135A56370BD6EB91E
:10299000806801F011FE226CA3681344A360626892
:1029A000934219D32368A3600020EDE7C06801F0CB
:1029B00003FE236C5B42E2681A44E26021688A42AB
:1029C00002D262681344E360022E07D145B1013D93
:1029D0000020D9E70020D7E70020D5E70020D3E783
:1029E0000020D1E7026C72B110B50346C4681444EC
:1029F000C4604068844201D31868D8600846D9682A
:102A000001F0DAFD10BD704738B5054601F04AF80F
:102A100095F8454064B201E0013C64B2002C0ADD47
:102A20006B6A43B105F1240000F068FE0028F3D082
:102A300000F0FAFEF0E7FF2385F8453001F054F886
:102A400001F030F895F8444064B201E0013C64B212
:102A5000002C0ADD2B6943B105F1100000F04EFE99
:102A60000028F3D000F0E0FEF0E7FF2385F84430C3
:102A700001F03AF838BD000038B530B304460D46D1
:102A800001F010F82168E26B236C03FB0210606018
:102A90000020A063A160013A02FB0313E360FF235F
:102AA00084F8443084F84530C5B92369F3B104F1A2
:102AB000100000F023FEC8B14FF080520D4B1A6099
:102AC000BFF34F8FBFF36F8F10E04FF0500383F3CE
:102AD0001188BFF36F8FBFF34F8FFEE704F1100033
:102AE000FFF7E2FE04F12400FFF7DEFE00F0FCFF3A
:102AF000012038BD04ED00E010B5029B0C4639B151
:102B00001A60D8631C6401211846FFF7B5FF10BD99
:102B10001B60F6E740B94FF0500383F31188BFF311
:102B20006F8FBFF34F8FFEE7F0B583B0054611B14D
:102B300001FB00F000E0002017460C46483001F091
:102B400045F9064638B100903B4600F1480221465F
:102B50002846FFF7D1FF304603B0F0BDF0B585B091
:102B6000019260B1044699B10125BDB94FF05003FF
:102B700083F31188BFF36F8FBFF34F8FFEE74FF0E2
:102B8000500383F31188BFF36F8FBFF34F8FFEE7BE
:102B9000026C0AB90125E8E70025E6E7022B09D017
:102BA0006DB94FF0500383F31188BFF36F8FBFF3FC
:102BB0004F8FFEE7E26B012AF2D00025F0E71E46B8
:102BC0000F4600F039FE10B9019B03B1002545B94D
:102BD0004FF0500383F31188BFF36F8FBFF34F8F14
:102BE000FEE700252CE0324639462046FFF7BFFEBF
:102BF000636A8BB104F1240000F080FD38B14FF01E
:102C00008052374B1A60BFF34F8FBFF36F8F00F0C6
:102C10006BFF012005B0F0BD0028F8D04FF08052C6
:102C20002F4B1A60BFF34F8FBFF36F8FEFE700F0AA
:102C30005BFF0020EEE72046FFF7E6FE00F01CFCFD
:102C400000F030FFA26BE36B9A42CCD3022ECAD0C5
:102C5000019B002BEBD01DB902A800F091FD0125CE
:102C600000F042FF00F074FB00F01CFF94F84430C9
:102C70005BB2B3F1FF3F02D1002384F8443094F8F3
:102C800045305BB2B3F1FF3F02D1002384F84530F9
:102C900000F02AFF01A902A800F086FDC8B920466D
:102CA000FFF749FE0028C6D0019904F1100000F09A
:102CB0000BFD2046FFF7A8FE00F0DEFB0028BFD189
:102CC0004FF08052064B1A60BFF34F8FBFF36F8FE8
:102CD000B6E72046FFF798FE00F0CEFB002099E70C
:102CE00004ED00E02DE9F84360B1044699B10120FC
:102CF000B8B94FF0500383F31188BFF36F8FBFF360
:102D00004F8FFEE74FF0500383F31188BFF36F8FAF
:102D1000BFF34F8FFEE7006C08B90120E8E7002001
:102D2000E6E7022B09D068B94FF0500383F311880E
:102D3000BFF36F8FBFF34F8FFEE7E56B012DF2D02E
:102D40000020F0E71F469046894600F0BBFFEFF3F6
:102D500011864FF0500383F31188BFF36F8FBFF3D9
:102D60004F8FA26BE36B9A4201D3022F21D194F8CB
:102D700045506DB23A4649462046FFF7F8FDB5F199
:102D8000FF3F10D1636AB3B104F1240000F0B6FC38
:102D900098B1B8F1000F12D00120C8F8000086F3F6
:102DA0001188BDE8F8836B1C5BB284F845300120C4
:102DB000F5E70020F3E70120F1E70120EFE701202C
:102DC000EDE700002DE9F04184B0019260B10446C6
:102DD00099B10125BDB94FF0500383F31188BFF3BA
:102DE0006F8FBFF34F8FFEE74FF0500383F31188CF
:102DF000BFF36F8FBFF34F8FFEE7026C0AB9012557
:102E0000E8E70025E6E71F46884600F015FD10B903
:102E1000019B03B1002545B94FF0500383F311889E
:102E2000BFF36F8FBFF34F8FFEE700265DE0E668CC
:102E300041462046FFF7D6FDDFB9013DA563236873
:102E400013B900F0BDFD6060236963B104F11000A7
:102E500000F054FC38B14FF08052454B1A60BFF37C
:102E60004F8FBFF36F8F00F03FFE012004B0BDE82D
:102E7000F081E660636A002BF5D004F1240000F0D5
:102E80003DFC0028EFD04FF08052394B1A60BFF361
:102E90004F8FBFF36F8FE6E700F026FE0020E5E7D7
:102EA00002A800F06DFC012629E0002384F84430DC
:102EB00031E0002384F8453033E000F0F3FD606832
:102EC00000F0CAFC00F010FE3BE02046FFF79CFD3E
:102ED00000F0D2FA09E02046FFF796FD00F0CCFAA8
:102EE0002046FFF737FD002840D100F0DBFDA56B41
:102EF000002D9CD1019B002BCED0002ED0D000F015
:102F0000F3FD00F025FA00F0CDFD94F844305BB2FB
:102F1000B3F1FF3FC9D094F845305BB2B3F1FF3F46
:102F2000C7D000F0E1FD01A902A800F03DFC002897
:102F3000D1D12046FFF70EFD0028C6D02368002B14
:102F4000BBD0019904F1240000F0BEFB2046FFF73E
:102F50005BFD00F091FA0028C7D14FF08052044B7E
:102F60001A60BFF34F8FBFF36F8FBEE700207DE77E
:102F700004ED00E02DE9F84360B1044699B1012366
:102F8000BBB94FF0500383F31188BFF36F8FBFF3CA
:102F90004F8FFEE74FF0500383F31188BFF36F8F1D
:102FA000BFF34F8FFEE7036C0BB90123E8E7002363
:102FB000E6E71746894600F085FEEFF311864FF0ED
:102FC000500383F31188BFF36F8FBFF34F8FD4F893
:102FD0003880B8F1000F20D094F844506DB24946C3
:102FE0002046FFF7FFFC08F1FF33A363B5F1FF3F75
:102FF0000DD123699BB104F1100000F07FFB80B17B
:103000008FB10120386086F31188BDE8F8836B1C0E
:103010005BB284F844300120F5E70020F3E701209B
:10302000F1E70120EFE70120EDE70000094B9B6A83
:103030001B6843B9012343B9064B9A6AD268D26828
:103040005268DA6270470023F5E74FF0FF32014B18
:10305000DA6270479000002010B50446006B00F063
:1030600039FF204600F036FF10BD2DE9F0478046BD
:103070009946089D099F0A9C266B02F18042013AFD
:1030800006EB820626F0070600230F2B07D8C85C44
:10309000E21882F83400CA5C0AB10133F5E7002374
:1030A00084F84330062D00D90625E56265644FF0AB
:1030B000000AC4F848A0201DFFF701FC04F1180025
:1030C000FFF7FDFB2461C5F10705A5616462C4F843
:1030D0004CA084F850A04A464146304600F0B4FC6B
:1030E000206007B13C60BDE8F087000070B50024A7
:1030F00007E004EB8402930010481844FFF7D4FB68
:103100000134062CF5D90E4C04F1BC063046FFF70D
:10311000CBFB04F1D0052846FFF7C6FB04F11400F1
:10312000FFF7C2FB04F1E400FFF7BEFB2046FFF708
:10313000BBFBA662C4F8F85070BD00BFC000002001
:103140009000002038B5054600F0ACFC264BD3F8C3
:10315000FC200132C3F8FC20D3F80031002B38D01A
:10316000214BD3F804314BB91F4BD3F80031DA6A45
:10317000EB6A9A4202D81C4BC3F800511A4CD4F89F
:1031800008310133C4F80831EB6A01229A40D4F8BF
:103190000C110A43C4F80C2104F1300003EB830343
:1031A0009A00291D1044FFF78DFB00F09DFCD4F818
:1031B00004316BB1D4F80031DA6AEB6A9A4207D273
:1031C0004FF08052094B1A60BFF34F8FBFF36F8FE0
:1031D00038BD054BC3F80051D3F8FC30012BCDD1DD
:1031E000FFF784FFCAE700BF9000002004ED00E075
:1031F00070B504460E461F4BD3F81051D3F80001AA
:103200000430FFF785FB60B91A4BD3F80021D16A6F
:10321000012202FA01F1D3F80C2122EA0102C3F8DB
:103220000C21B4F1FF3F12D02C44124BD3F80031E3
:103230005C60A54214D80F4DA86AD5F8001104317E
:10324000FFF74CFBEB6A9C4200D2EC6270BD002E93
:10325000EAD00848D0F800110431FFF733FB70BD05
:10326000044BD3F8F800D3F800110431FFF736FB14
:1032700070BD00BF900000202DE9F04385B00646E8
:103280000F4615469846900000F0A0FD00B3814619
:10329000542000F09BFD0446B0B1C0F83090CCB192
:1032A0000023039302940D9B01930C9B00934346D0
:1032B0002A4639463046FFF7D8FE2046FFF742FF40
:1032C000012005B0BDE8F083484600F003FEE6E7C4
:1032D0000024E4E74FF0FF30F3E7000000B583B0CF
:1032E000174B019300230093802216491648FFF7DD
:1032F000C3FF012805D0B0F1FF3F17D003B05DF840
:1033000004FB4FF0500383F31188BFF36F8FBFF3BB
:103310004F8F0E4B4FF0FF32DA620122C3F80421C7
:103320000022C3F8102100F059FCE7E74FF05003EA
:1033300083F31188BFF36F8FBFF34F8FFEE700BF9A
:10334000AC010020D44E0008113600089000002087
:10335000034AD2F818310133C2F81831704700BF60
:10336000900000202DE9F041424BD3F81831002B9A
:1033700070D1404BD3F810510135C3F81051CDB97D
:103380009B6A1B6843B14FF0500383F31188BFF36E
:103390006F8FBFF34F8FFEE7364B9A6AD3F8F81062
:1033A0009962C3F8F820D3F820210132C3F8202114
:1033B000FFF73CFE2F4BDB6A9D423FD200242D4A93
:1033C000D2F80031DB6A03EB830399000A44136BE4
:1033D000012B46D9012444E00124264B9B6A1B683B
:1033E00073B3002373BB234B9B6ADB68DE6873688F
:1033F0009D422CD306F104084046FFF789FAB36AD0
:103400001BB106F11800FFF783FAF36A01229A4014
:10341000184FD7F80C110A43C7F80C2107F13000F8
:1034200003EB83039A0041461044FFF74BFAF26A1C
:10343000D7F80031DB6A9A42CED2CEE70024CCE73F
:103440000123CFE74FF0FF320A4BDA62B7E7094AB0
:10345000D362B4E7074AD2F824310133C2F82431E9
:103460000024044BD3F8283103B101242046BDE8E1
:10347000F08100BF900000203A4BD3F8183143B9D7
:103480004FF0500383F31188BFF36F8FBFF34F8F5B
:10349000FEE770B500F006FB324BD3F81821013A75
:1034A000C3F81821D3F81831002B57D12D4BD3F87E
:1034B000FC3023B9002400F017FB204670BD002427
:1034C000284B5B692BB3274D2B6ADC6804F118008D
:1034D000FFF71EFA261D3046FFF71AFAE36A0122AB
:1034E0009A40D5F80C110A43C5F80C2105F13000BB
:1034F00003EB83039A0031461044FFF7E3F9E26AD5
:10350000D5F80031DB6A9A42DAD30122C5F82821C6
:10351000D6E70CB1FFF78AFD124BD3F824417CB9F2
:10352000104BD3F82831DBB14FF080520E4B1A60AC
:10353000BFF34F8FBFF36F8F0124BCE7013C08D06E
:10354000FFF710FF0028F9D00122064BC3F828210D
:10355000F4E70022034BC3F82421E1E70024AAE7A3
:103560000024A8E79000002004ED00E010B5B0B101
:103570000446104BD3F8183143B14FF0500383F396
:103580001188BFF36F8FBFF34F8FFEE7FFF7E0FEA9
:1035900000212046FFF72CFEFFF76EFF00E0002021
:1035A00038B94FF08052044B1A60BFF34F8FBFF30E
:1035B0006F8F10BD9000002004ED00E038B5134B74
:1035C000D3F814310BB3FFF7C3FE104BD3F8E4402C
:1035D000FFF752FF002CF2D000F064FA0B4CD4F845
:1035E000F030DD68281DFFF793F9D4F8FC30013B7B
:1035F000C4F8FC30D4F81431013BC4F8143100F0A5
:1036000073FA2846FFF728FDD9E738BD900000205F
:1036100008B5FFF7D3FF064B1B6B012BF9D94FF011
:103620008052044B1A60BFF34F8FBFF36F8FF0E7E8
:103630009000002004ED00E0224BD3F81831CBB904
:10364000204A0023C2F82831D2F80C31B3FA83F3B0
:10365000DBB2C3F11F0303EB830081000A44126B4A
:103660006AB94FF0500383F31188BFF36F8FBFF334
:103670004F8FFEE70122134BC3F82821704710B487
:10368000104A9900CC18A0001044446B646844634D
:1036900030321944880001460830024494420BD06D
:1036A000084903EB83039A000A44536BDB68C1F8B3
:1036B00000315DF8044B70476068024A0A44506369
:1036C000EEE700BF9000002040B94FF0500383F3B5
:1036D0001188BFF36F8FBFF34F8FFEE710B50C4615
:1036E000054BD3F800111831FFF7F8F801212046F7
:1036F000FFF77EFD10BD00BF9000002038B5C36805
:10370000DC684CB304F118052846FFF701F91A4BA1
:10371000D3F818314BBB251D2846FFF7F9F8E36AAB
:1037200001219940144AD2F80C010143C2F80C114E
:10373000303203EB8303980029461044FFF7C2F8A8
:10374000E26A0D4BD3F80031DB6A9A4212D90120AC
:10375000094BC3F8280138BD4FF0500383F311889B
:10376000BFF36F8FBFF34F8FFEE729460348FFF784
:10377000A9F8E5E7002038BD90000020A400002053
:1037800038B1084AD2F820110160D2F81021426005
:1037900070474FF0500383F31188BFF36F8FBFF36F
:1037A0004F8FFEE79000002038B5D0B1044609B332
:1037B0000D4600F077F91B4BD3F810112B68B3F1CD
:1037C000FF3F2BD02068174AD2F82021904202D028
:1037D0006268914224D26268881A834213D8012415
:1037E00018E04FF0500383F31188BFF36F8FBFF3DE
:1037F0004F8FFEE74FF0500383F31188BFF36F8FB5
:10380000BFF34F8FFEE7521A13442B602046FFF799
:10381000B7FF002400F068F9204638BD0024F9E71E
:103820000124F7E7900000200122024BC3F8282171
:10383000704700BF90000020064BD3F804312BB135
:10384000044BD3F818311BB9022070470120704790
:10385000002070479000002000284FD038B5054662
:10386000C36A2749D1F80011C96A8B4218D281690D
:10387000002906DB2249D1F80011C96AC1F107010C
:103880008161686903EB830399001E4B0B449842E6
:1038900007D000233BB91A4BD3F80031DB6AEB6247
:1038A00038BD0123F6E72C1D2046FFF731F880B91B
:1038B000EA6A02EB82039900114B0B441B6B43B97C
:1038C000012393400E49D1F80C2122EA0302C1F8EA
:1038D0000C210B48D0F80031DB6AEB6201229A40E0
:1038E000D0F80C110A43C0F80C21303003EB8303ED
:1038F0009A0021461044FEF7E5FF38BD704700BF2F
:1039000090000020C0000020002850D038B50446A8
:103910002A4AD2F80021904208D04FF0500383F396
:103920001188BFF36F8FBFF34F8FFEE7826C42B9F0
:103930004FF0500383F31188BFF36F8FBFF34F8FA6
:10394000FEE7013A8264C06A616C884231D092BB62
:10395000251D2846FEF7DCFF88B9E26A02EB8203E8
:103960009900164B0B441B6B4BB9012303FA02F26F
:103970001249D1F80C3123EA0203C1F80C31636C0F
:10398000E362C3F10702A261012404FA03F10B4AC6
:10399000D2F80C010143C2F80C11303203EB83035F
:1039A000980029461044FEF78DFF204638BD0020C0
:1039B0007047002038BD002038BD00BF90000020B7
:1039C000064BD3F800312BB1044BD3F80021936C94
:1039D00001339364014BD3F800017047900000203D
:1039E0000B4B1B68B3F1FF3F08D04FF0500383F33C
:1039F0001188BFF36F8FBFF34F8FFEE74FF0500377
:103A000083F31188BFF36F8FBFF34F8FFEE700BFC3
:103A10000800002006480068006880F3088862B645
:103A200061B6BFF34F8FBFF36F8F00DF00BF0000A1
:103A300008ED00E0DFF80C00016841F4700101605E
:103A40007047000088ED00E04FF0807340F8043CC0
:103A500021F0010140F8081C054B40F80C3C40F8EF
:103A6000202C6FF0020340F8243C4438704700BF1C
:103A7000E139000800000000000000000000000024
:103A8000074B19680868B0E8F04F80F30988BFF366
:103A90006F8F4FF0000080F311887047AFF3008004
:103AA000900100204FF0500383F31188BFF36F8F14
:103AB000BFF34F8F0A4A136801331360012B0DD1F6
:103AC000084B1B6813F0FF0F08D04FF0500383F32F
:103AD0001188BFF36F8FBFF34F8FFEE7704700BFB2
:103AE0000800002004ED00E0094B1B6843B94FF0CB
:103AF000500383F31188BFF36F8FBFF34F8FFEE73F
:103B0000013B034A13600BB983F31188704700BF70
:103B1000080000200000000000000000000000007D
:103B2000EFF30980BFF36F8F154B1A681EF0100F6B
:103B300008BF20ED108A20E9F04F10604DF8043DD9
:103B40004FF0500080F31188BFF34F8FBFF36F8F9A
:103B5000FFF772FD4FF0000080F3118808BC196870
:103B60000868B0E8F04F1EF0100F08BFB0EC108AE4
:103B700080F30988BFF36F8F704700BFAFF30080F9
:103B80009001002008B54FF0500383F31188BFF374
:103B90006F8FBFF34F8FFFF7E5FB18B14FF08052E7
:103BA000024B1A60002383F3118808BD04ED00E086
:103BB000064B1B68064AA2FB03239B09013B054AEF
:103BC00013600722044B1A60704700BF0C000020EE
:103BD000D34D621014E000E010E000E0314B1A68B1
:103BE000314B9A4219D02F4B1A68304B9A421DD054
:103BF00000B583B02E4B1A78D2B20192FF221A7010
:103C00001B78DBB28DF803309DF8033003F05003CE
:103C1000284A1370072353601BE04FF0500383F3CF
:103C20001188BFF36F8FBFF34F8FFEE74FF0500344
:103C300083F31188BFF36F8FBFF34F8FFEE71D4AE9
:103C40005368013B53609DF803305B00DBB28DF895
:103C500003309DF8033013F0800FF0D1154A5368FC
:103C60001B0203F4E0635360019BDBB2104A137044
:103C7000114B1A6842F470021A601A6842F07042DE
:103C80001A60FFF795FF00220C4B1A60FFF7D2FE77
:103C90000B4A136843F040431360FFF7BBFEFFF786
:103CA0009FFE00BF00ED00E071C20F4170C20F41E6
:103CB00000E400E0BC01002020ED00E0080000204E
:103CC00034EF00E0EFF305830F2B0FD9104A9B5C14
:103CD000DBB2104A1278934208D24FF0500383F3BC
:103CE0001188BFF36F8FBFF34F8FFEE70A4B1B683E
:103CF00003F4E063074A5268934208D94FF0500337
:103D000083F31188BFF36F8FBFF34F8FFEE77047C8
:103D1000F0E300E0BC0100200CED00E0134A12F0DB
:103D2000070F20D0D11D21F00701C1F580531344A6
:103D30000A460F4941F8F82C002041F8F40C1344CE
:103D4000083B23F0070341F8F03C58601860981ACC
:103D50005060136041F8EC0C41F8E80C4FF0004360
:103D600041F8E43C70474FF48053E2E7C40100207F
:103D7000BC12002010B4134B1A6882421CD359683D
:103D80005C18A04203D1406801445960184641685C
:103D90004418A24214D10C4C54F8F04CA2420DD05D
:103DA0005268114441601A6812680260984200D05B
:103DB00018605DF8044B70471346DDE70460F5E7D3
:103DC0000260F3E7C4110020BC12002070B5044665
:103DD000FFF7BEFA3E4B53F8F03CC3B13C4B53F8EF
:103DE000E43C1C426AD1ACB1083414F0070F11D086
:103DF00024F00704083404F007035BB14FF05003CC
:103E000083F31188BFF36F8FBFF34F8FFEE7FFF788
:103E100085FFE3E7002C53D02D4B53F8E83C9C4240
:103E200050D82B4B53F8F85D01E02B4615466A68D5
:103E3000944202D92A68002AF7D1254A52F8F02C78
:103E4000954241D01E6808362A681A606B681B1BB1
:103E5000102B10D9281910F0070F08D04FF050037D
:103E600083F31188BFF36F8FBFF34F8FFEE743607B
:103E70006C60FFF77FFF6968154A52F8E83C5B1AEF
:103E800042F8E83C52F8EC2C934202D2104A42F835
:103E9000EC3C0F4B53F8E43C0B436B6000232B606E
:103EA000FFF7EAFA16F0070F10D04FF0500383F334
:103EB0001188BFF36F8FBFF34F8FFEE70026EFE748
:103EC0000026EDE70026EBE70026E9E7304670BD67
:103ED000BC12002098B338B50446A0F1080550F88C
:103EE000042C174951F8E41C0A4208D14FF0500342
:103EF00083F31188BFF36F8FBFF34F8FFEE750F846
:103F0000080C40B14FF0500383F31188BFF36F8F5B
:103F1000BFF34F8FFEE722EA010244F8042CFFF7BB
:103F200017FA54F8041C064A52F8E83C0B4442F8CD
:103F3000E83C2846FFF71EFFFFF79EFA38BD7047A2
:103F4000BC12002000B58BB01E484FF0A0430360A8
:103F50000023436083600361C36143620363012202
:103F6000C262C3600262436304224261836183636D
:103F7000FCF7C8FAB8B90AA9002341F80C3D11486A
:103F8000FCF79CFFA0B90123019302930023049343
:103F900003930593069301A90A48FCF7ABFD60B9AA
:103FA0000BB05DF804FB5521074800F03BF9E2E750
:103FB0005D21054800F036F9E5E76A21024800F086
:103FC00031F9EDE7EC110020DC4E00080368B3F195
:103FD000A04F00D0704700B587B003F1704303F5E0
:103FE00004335A6942F080525A615B6903F080538E
:103FF0000093009B01230193032302930023039367
:1040000001A94FF09040FDF78FF807B05DF804FB71
:1040100000B587B02023019301230293002303936B
:10402000049301A94FF09040FDF77EF80122202172
:104030004FF09040FDF752F96420FCF75DF9002243
:1040400020214FF09040FDF749F96420FCF754F926
:10405000ECE7000038B500250CE00E48FCF772FCD8
:104060004FF4FA7229460C4B1868FEF791FB1420A6
:10407000FEF77EFB074C2046FCF7A4FB07492046D1
:10408000FCF786FC0028E8D12046FCF72FFD05460A
:10409000E3E700BFEC1100204412002040420F0073
:1040A00000B58DB01E22002104A800F090FA02E0B5
:1040B0000A20FEF75DFB4FF47A720A4B196801A8DB
:1040C000FEF79AFB019B402BF2D0029B064A1A2175
:1040D00004A800F085FA64230E2204A90348FEF721
:1040E00048FAE5E744120020EC4E00089012002048
:1040F00070B592B01A4C0DAD26460FCE0FC5336881
:104100002B6000210DA8FEF719FB164B186008ADB7
:1041100004F114060FCE0FC533682B60002108A8E8
:10412000FEF70CFB104B186003AD04F128060FCE10
:104130000FC533682B60002103A8FEF7FFFA0B4B75
:10414000186001AB3C3494E8030083E803000021CD
:104150001846FEF716FB064B186012B070BD00BF84
:10416000784E0008401200204C1200204812002017
:104170004412002010B58AB0214B5A6942F4002243
:104180005A615A6902F400220192019A5A6942F472
:1041900080025A615A6902F480020292029A5A69B4
:1041A00042F400325A615A6902F400320392039ACF
:1041B0005A6942F480225A615B6903F480230493B4
:1041C000049B002220214FF09040FDF787F84FF428
:1041D000005305930B4B06930024079405A90A4846
:1041E000FCF7A2FF2023059301230693079408946C
:1041F00005A94FF09040FCF797FF0AB010BD00BF33
:1042000000100240000021100008004808B50268B4
:10421000034B9A4200D008BDFCF75CF8FBE700BFF7
:10422000002C0140FEE7000000B5A7B002231C935C
:1042300001221F921022209222934FF400432393D5
:104240004FF4E0132493002325931CA8FDF74CF8AA
:1042500060BB0F23179302211891002319934FF489
:1042600080621A921B9317A8FDF77EFB10BB822376
:104270000193002304934FF480730B9301A8FDF77F
:10428000ADFCD8B9FDF75AFC0E4BA3FB00308009FA
:10429000FCF724FF0420FCF737FF00220F214FF02A
:1042A000FF30FCF7DDFE27B05DF804FBA6210648D1
:1042B000FFF7B8FFB4210448FFF7B4FFBC21024860
:1042C000FFF7B0FFD34D6210204F000800B583B058
:1042D000FBF7EEFFFFF7A8FFFFF74CFF00F0D8F861
:1042E000FFF730FE074B5A6942F400325A615B69AE
:1042F00003F400330193019BFFF7FAFEFEF719FA6E
:10430000FEE700BF0010024000B583B0214B9A6960
:1043100042F001029A619A6902F001020092009A49
:10432000DA6942F08052DA61DB6903F0805301936D
:10433000019B0320FCF782FE002211466FF00B0068
:10434000FCF78EFE002211466FF00A00FCF788FE93
:10435000002211466FF00900FCF782FE0022114690
:104360006FF00400FCF77CFE002211466FF00300A2
:10437000FCF776FE00220F216FF00100FCF770FEC3
:1043800000220F214FF0FF30FCF76AFE03B05DF80A
:1043900004FB00BF0010024000B589B000220146B6
:1043A0001920FCF75DFE1920FCF78CFE144B9A696E
:1043B00042F400629A619B6903F400630193019BDC
:1043C00002A903A8FDF7ECFBFDF7D4FB0D4BA3FB03
:1043D00000239B0C013B0C480C4A026040F2E73280
:1043E000C2604360002303618360FDF7C1FE18B122
:1043F000012009B05DF804FB0348FDF774FDF8E700
:104400000010024083DE1B4350120020002C0140AC
:1044100008B5FEF741FA08BD08B50248FDF773FD7F
:1044200008BD00BF501200201549D1F8883043F470
:104430007003C1F88830134B1A6842F001021A6009
:104440005868114A02405A601A6822F0847222F4B5
:1044500080321A601A6822F480221A605A6822F4A4
:10446000FE025A60DA6A22F00F02DA62186B074A1B
:1044700002401A6300229A604FF000638B6070471D
:1044800000ED00E0001002400CC07FF8CCFC00FF03
:1044900008B50C480C4B03604FF4164343600023EF
:1044A0008360C36003610C2242618361C361036264
:1044B0004362FEF7FEF800B908BD4E210348FFF73E
:1044C000B1FEF9E79012002000440040304F000890
:1044D0000268114B9A4200D0704700B587B003F5CF
:1044E000E633DA6942F40032DA61DB6903F400335F
:1044F0000093009B0C230193022302930023039358
:1045000004930723059301A94FF09040FCF70CFE9C
:1045100007B05DF804FB00BF00440040DFF834D072
:10452000002103E00C4B5B58435004310B480C4B0B
:1045300042189A42F6D30B4A02E0002342F8043BA9
:10454000094B9A42F9D3FFF76FFF00F011F8FFF71C
:10455000BDFEFEE7000001207C4F000800000020A7
:10456000740000207400002004130020FEE7000007
:1045700070B50D4E0D4CA41BA4100025A54209D109
:104580000B4E0C4C00F05CFCA41BA4100025A542B3
:1045900005D170BD56F8253098470135EEE756F83D
:1045A000253098470135F2E7744F0008744F000832
:1045B000744F0008784F000810B5431E0A4491421A
:1045C00000D110BD11F8014B03F8014FF7E7024489
:1045D0000346934200D1704703F8011BF9E700003E
:1045E0000CB430B5174B0C1E9DB01D6808DA8B2338
:1045F0002B604FF0FF301DB0BDE8304002B0704777
:104600004FF40273ADF8143014BF04F1FF332346A6
:10461000049307934FF6FF7302900690ADF816309F
:10462000209A21AB02A92846019300F069F8431CA7
:10463000BCBF8B232B60002CDDD0029B00221A70A4
:10464000D9E700BF100000202DE9F0478E689E4298
:1046500082460C469146984635D88A8912F4906F66
:1046600031D0256809696F1A6569022305EB450594
:1046700095FBF3F508F101033B449D4238BF1D460D
:10468000530531D5294600F02DFB064650B90C23C1
:10469000CAF80030A38943F04003A3814FF0FF30F4
:1046A000BDE8F0873A462169FFF786FFA38923F426
:1046B000906343F08003A381266165613E44ED1B56
:1046C0002660A5604646464528BF464632464946CE
:1046D000206800F09FFAA3689B1BA36023681E4418
:1046E00026600020BDE8F0872A4600F059FB064608
:1046F0000028E1D12169504600F0A6FAC7E7000082
:104700002DE9F04F9DB0804603938B891C060D4622
:1047100016460FD50B696BB9402100F0E3FA28600B
:10472000286128B90C23C8F800304FF0FF30C5E0ED
:1047300040236B610023099320238DF82930302317
:104740008DF82A304FF0010B37463C4614F8013BF8
:10475000002B3CD1B7EB060A0BD053463246294614
:104760004046FFF771FF013000F0A380099B5344DE
:1047700009933B78002B00F09C8000234FF0FF3220
:1047800004930793059206938DF853301A930522EC
:1047900021785048FBF73CFD671C049BD8B9D9062B
:1047A00044BF20228DF853201A0744BF2B228DF8D6
:1047B000532022782A2A16D0079A00210A20274659
:1047C00001343B78303B092B51D9C9B111E0252B7D
:1047D000C0D02746B9E73F4A801A0BFA00F01843C9
:1047E00004903C46D3E7039A111D12680391002AF6
:1047F00001DB079204E0524243F002030792049364
:104800003B782E2B0ED17B782A2B07F1010132D178
:10481000039B1A1D1B680392002BB8BF4FF0FF3398
:10482000023705932C4C397803222046FBF7F0FC25
:1048300038B14023001B03FA00F0049B03430493A8
:104840000137397825488DF8281006227E1CFBF7A1
:10485000DFFC002835D0224BFBB9039B073323F044
:10486000070308330393099B4B4409936CE700FB50
:1048700002320121A3E70023059318460A240F46BC
:1048800001313A78303A092A03D9002BCAD0059071
:10489000C8E704FB00200123F1E703AB00932A469D
:1048A000104B04A94046AFF30080B0F1FF3F8146B2
:1048B000D9D1AB895B063FF538AF09981DB0BDE88B
:1048C000F08F03AB00932A46064B04A9404600F044
:1048D00081F8EAE7404F0008464F00084A4F0008B9
:1048E00000000000494600082DE9F04791461F46A8
:1048F0008A680B69DDF820809342B8BF1346C9F877
:10490000003091F8432006460C4612B10133C9F835
:1049100000302368990642BFD9F800300233C9F845
:104920000030256815F0060507D104F1190AE3687F
:10493000D9F800209B1A9D4229DB94F84330226865
:10494000003318BF012392062ED404F143023946E6
:104950003046C047013021D02368E568D9F80020EF
:1049600003F00603042B08BFAD1AA36822690CBF2D
:1049700025EAE57500259342C4BF9B1AED184FF058
:1049800000091A344D451BD10020BDE8F0870123F2
:10499000524639463046C047013003D14FF0FF3010
:1049A000BDE8F0870135C2E7E1185A1C302081F8D4
:1049B0004300224494F8451082F843100233C4E7C0
:1049C0000123224639463046C0470130E6D009F17E
:1049D0000109D7E72DE9F04317460A7E85B06E2A14
:1049E000984606460C460C9B01F1430E00F0BC8035
:1049F0001AD8632A2ED00AD8002A00F0C880582A74
:104A000000F08A8004F1420584F842202AE0642AFA
:104A100001D0692AF6D121681A6811F0800F23D0DD
:104A2000111D1960136827E0732A00F0B48008D8BC
:104A30006F2A2AD0702AE5D10A6842F020020A6063
:104A400003E0752A21D0782ADCD1782284F8452029
:104A50006E4964E01A6801F14205111D196013687E
:104A600084F842300123A3E011F0400F02F1040169
:104A70001960D7D0B2F90030002B03DA2D225B4247
:104A800084F8432062490A2217E02068196810F070
:104A9000800F03D0081D18600B6806E010F0400F6F
:104AA00001F104001860F7D00B8859496F2A14BF30
:104AB0000A220822002084F843006568A560002DC2
:104AC000C0F29C80206820F004002060002B3FD1C1
:104AD000002D40F095807546082A0BD12368DA072F
:104AE00008D5236962689A42DEBF302305F8013C8D
:104AF00005F1FF35AEEB05032361CDF800803B46A1
:104B000003AA21463046FFF7EFFE013055D14FF0A2
:104B1000FF3005B0BDE8F08381F845203C492268AC
:104B2000186812F0800F00F104051D6001D00368C1
:104B300002E05506FBD50388D00744BF42F02002AF
:104B400022601BB9226822F0200222601022B1E705
:104B50007546B3FBF2F002FB1033CB5C05F8013D68
:104B600003460028F5D1B7E708681A68496910F0CC
:104B7000800F04D0101D18601368196007E010F052
:104B8000400F02F1040018601368F6D0198000236A
:104B900023617546B1E71A68111D196015686268CE
:104BA00000212846FBF734FB08B1401B60606368B6
:104BB0002361002384F843309FE723692A4639465E
:104BC0003046C0470130A2D023689B0707D5002597
:104BD00004F11909E368039A9B1A9D4205DBE0681A
:104BE000039B9842B8BF184693E701234A463946CB
:104BF0003046C04701308AD00135EBE7002BA7D102
:104C00000B7884F8423004F1420565E7624F0008F2
:104C1000514F0008884210B501EB020303D8421E31
:104C200099420CD110BD9842F9D28118D21AD342C0
:104C300000D110BD13F8014D01F8014DF7E711F84F
:104C4000014B02F8014FEBE738B50546002945D086
:104C500051F8043C0C1F002BB8BFE41800F0D6F844
:104C60001F4A1368104633B9636014602846BDE8D4
:104C7000384000F0CCB8A3420CD9216862189342A6
:104C800004BF1A685B68636004BF52182260046046
:104C9000ECE713465A680AB1A242FAD919685818C3
:104CA000A0420BD120680144581882421960DDD11E
:104CB000106852685A6001441960D7E702D90C2382
:104CC0002B60D3E7206821188A4204BF116852681C
:104CD000626004BF091821605C60C7E738BD00BF8F
:104CE000DC11002070B5CD1C25F0030508350C2D16
:104CF00038BF0C25002D064601DBA94203D90C2341
:104D00003360002070BD00F081F8234A146821460A
:104D100091B9224C23681BB9304600F067F8206037
:104D20002946304600F062F8431C26D10C2333603C
:104D3000304600F06CF8E4E70B685B1B1AD40B2BD1
:104D40000FD90B60CD50CC18304600F060F804F15C
:104D50000B00231D20F00700C31A1BD05A42E2505B
:104D600070BD8C420DBF63684B686360136018BFF1
:104D70000C46E9E70C464968CAE7C41C24F0030462
:104D8000A04205D0211A304600F030F80130CDD0D5
:104D90002560D9E770BD00BFDC110020E0110020C4
:104DA000F8B5074614460E4621B91146BDE8F8404D
:104DB000FFF798BF22B9FFF747FF25462846F8BD01
:104DC00000F026F884420FD921463846FFF78AFFC3
:104DD00005460028F2D031462246FFF7EDFB31466A
:104DE0003846FFF731FFE9E73546E7E738B5064CC7
:104DF000002305460846236000F014F8431C02D146
:104E0000236803B12B6038BD001300207047704742
:104E100051F8040C0028A0F10400BCBF0B58C018C6
:104E200070470000044A05491368002B08BF0B4671
:104E30001844106018467047E41100200813002041
:104E4000F8B500BFF8BC08BC9E467047F8B500BF77
:084E5000F8BC08BC9E46704747
:104E580002030405060708090A0B0C0D0E0F1010B3
:104E68000102030405060708090A0B0C0D0E0F10B2
:104E7800144F000811400008000000000000000066
:104E880080000000084F000855400008000000009E
:104E98000000000000010000FC4E0008A1400008CE
:104EA80000000000000000000001000040000000B9
:104EB80004000000000000000000000001020304DC
:104EC80006070809000000000102030449444C4594
:104ED800000000002E2E2F5372632F6164632E632F
:104EE800000000004C69637A3D25386C750A202063
:104EF80020000000736572766F5461736B000000C8
:104F0800726561645461736B0000000064656661DA
:104F1800756C745461736B002E2E2F5372632F6D52
:104F280061696E2E630000002E2E2F5372632F7559
:104F3800736172742E630000232D302B2000686C7F
:104F48004C006566674546470030313233343536A4
:104F580037383941424344454600303132333435DD
:0C4F68003637383961626364656600000A
:044F7400C50100086B
:044F7800A10100088B
:104F7C000100000010000000AAAAAAAA00127A00E0
:104F8C0014000020000000000000000000000000E1
:104F9C000000000000000000000000000000000005
:104FAC0000000000000000000000000000000000F5
:104FBC0000000000000000000000000000000000E5
:104FCC0000000000000000000000000000000000D5
:104FDC0000000000000000000000000000000000C5
:044FEC0000000000C1
:040000050800451D8D
:00000001FF
