:020000040800F2
:1000000000000120492100089921000899210008D9
:10001000992100089921000899210008000000009A
:10002000000000000000000000000000992100080E
:10003000992100080000000099210008451F0008D0
:1000400099210008992100089921000899210008A8
:100050009921000899210008992100089921000898
:100060009921000899210008992100089921000888
:100070009921000899210008992100089921000878
:100080009921000899210008992100089921000868
:100090009921000899210008992100089921000858
:1000A0009921000899210008992100089921000848
:1000B0009921000899210008992100089921000838
:1000C0009921000899210008992100089921000828
:1000D0009921000899210008992100089921000818
:1000E0009921000899210008992100089921000808
:1000F00099210008992100089921000899210008F8
:10010000992100080000000000000000992100086B
:1001100099210008992100089921000899210008D7
:1001200099210008992100089921000899210008C7
:10013000992100089921000800000000000000003B
:100140009921000899210008992100080000000069
:10015000000000000000000000000000000000009F
:100160009921000899210008992100089921000887
:100170009921000899210008992100089921000877
:1001800099210008992100080000000000000000EB
:0401900099210008A9
:1001940010B5054C237833B9044B13B10448AFF3BD
:1001A40000800123237010BD0C000020000000001B
:1001B400E42100080C4B43B10C480D4910B5AFF3D2
:1001C40000800C48036823B910BD0A48036833B99A
:1001D4007047094B002BF7D0BDE810401847064B79
:1001E400002BF5D0184700BF00000000E4210008F0
:1001F400100000200C0000200000000010B5044690
:100204000E4B18784FF47A73B3FBF0F30C4A106872
:10021400B0FBF3F000F092F868B90F2C01D901207B
:1002240010BD002221464FF0FF3000F055F8034B7B
:100234005C60002010BD012010BD00BF0000002044
:100244000800002008B5074A136843F01003136040
:10025400032000F02FF80020FFF7D0FF01F028FE64
:10026400002008BD00200240034A1168034B1B789C
:100274000B441360704700BF2800002000000020DA
:10028400014B1868704700BF2800002038B50446A9
:10029400FFF7F6FF0546B4F1FF3F02D0044B1B788D
:1002A4001C44FFF7EDFF401B8442FAD838BD00BF61
:1002B40000000020074AD36823F4E0631B041B0CEE
:1002C400000200F4E060184340F0BF6040F40030E6
:1002D400D060704700ED00E030B4164BDB68C3F328
:1002E4000223C3F10704042C28BF04241D1D062D7A
:1002F40017D9033B012505FA04F4013C2140994038
:1003040005FA03F3013B1340194300280BDB0901F1
:10031400C9B200F1604000F5614080F8001330BCC0
:1003240070470023E6E700F00F000901C9B2024B51
:100334001954F4E700ED00E014ED00E00138B0F1E9
:10034400807F0AD2064B5860F021064A82F82310B7
:100354000020986007221A6070470120704700BF90
:1003640010E000E000ED00E0042805D0054A136821
:1003740023F0040313607047024A136843F0040334
:100384001360704710E000E0704708B5FFF7FCFF0A
:1003940008BD0000F0B583B0002393E04FEAD30E0C
:1003A4000EF1080E50F82E4003F00706B6000F2792
:1003B400B74024EA07040F6907FA06F6344340F805
:1003C4002E408EE086682640CF6807FA0EF73E433B
:1003D4008660466826EA05054E68C6F300169E4008
:1003E40035434560C5682C408D6805FA0EF52C43ED
:1003F400C4604C6814F0805F63D04F4CA56945F02D
:100404000105A561A46904F001040194019C9C0800
:10041400A61C4A4D55F8265003F00306B7000F26D4
:10042400BE4025EA0605B0F1904F77D0444EB04265
:1004340076D006F58066B04274D006F58066B04288
:1004440072D006F58066B04270D006F58066B04280
:100454006ED006F58066B0425ED00726BE403543B6
:100464000234364E46F82450364C2568D44305EA07
:1004740004064F6817F4803F01D042EA0506314D67
:100484002E606D6804EA05064F6817F4003F01D03A
:1004940042EA05062B4D6E60AD6804EA05064F6816
:1004A40017F4801F01D042EA0506264DAE60ED68C0
:1004B4002C404E6816F4001F01D042EA0504214A7C
:1004C400D46001330A6832FA03F433D001259D4025
:1004D4002A40F6D04C68022C3FF460AF122C3FF453
:1004E4005DAF06684FEA430E032404FA0EF4E443B6
:1004F40026404F6807F0030707FA0EF73E430660ED
:100504004E68771E012F7FF65DAF112E3FF45AAF70
:10051400122E7FF467AF55E706269FE700269DE776
:1005240001269BE7022699E7032697E7042695E729
:10053400052693E703B0F0BD00100240000001401F
:1005440000040048000401400AB9816270478161D7
:1005540070474369594041617047000070B582B0EB
:100564000446036813F0010F5ED0B34B5B6803F0DD
:100574000C03042B41D0B04B5B6803F00C03082B35
:1005840034D06368B3F5803F00F08980002B40F0DD
:100594008C8003F1804303F504331A6822F480321B
:1005A4001A601A6822F480221A606368002B00F033
:1005B4009680FFF765FE05464FF4003393FAA3F3E4
:1005C4009D4B19684FF4003393FAA3F3B3FA83F302
:1005D40003F01F03012202FA03F3194224D1FFF7A7
:1005E4004FFE401B6428E7D90320BAE2924B5B68B4
:1005F40003F4C033B3F5803FC3D14FF4003393FA0F
:10060400A3F38D4B19684FF4003393FAA3F3B3FAB1
:1006140083F303F01F03012202FA03F3194203D008
:100624006368002B00F09082236813F0020F00F03F
:100634009E80814B5B6813F00C0F74D07E4B5B681B
:1006440003F00C03082B67D0E368002B00F0CD8087
:10065400012292FAA2F3B3FA83F303F1845303F56C
:1006640084139B001A60FFF70BFE0546022393FADE
:10067400A3F3714B1968022393FAA3F3B3FA83F338
:1006840003F01F03012202FA03F3194240F09E8093
:10069400FFF7F6FD401B0228E8D9032061E2664A11
:1006A400136843F4803313607FE7B3F5A02F09D0B8
:1006B400614B1A6822F480321A601A6822F480228C
:1006C4001A6072E703F18043A3F53C331A6842F4DD
:1006D40080221A601A6842F480321A6065E7FFF7D4
:1006E400CFFD05464FF4003393FAA3F3524B196838
:1006F4004FF4003393FAA3F3B3FA83F303F01F0325
:10070400012202FA03F319428ED0FFF7B9FD401B10
:100714006428E7D9032024E2474B5B6803F4C03321
:10072400B3F5004F90D1022393FAA3F3424B196817
:10073400022393FAA3F3B3FA83F303F01F03012212
:1007440002FA03F3194204D0E368934201D0012072
:1007540007E23948036823F0F8032169F82292FA82
:10076400A2F2B2FA82F201FA02F21343036023689E
:1007740013F0080F00F08C806369002B60D0012116
:1007840091FAA1F2B2FA82F22C4B13449B00196045
:10079400FFF776FD0546022393FAA3F293FAA3F238
:1007A40093FAA3F2244A516A93FAA3F3B3FA83F3B4
:1007B40003F01F03012202FA03F3194268D1FFF781
:1007C4005FFD401B0228E6D90320CAE11A480368EA
:1007D40023F0F8032169F82292FAA2F2B2FA82F223
:1007E40001FA02F213430360C1E7012393FAA3F36E
:1007F400B3FA83F303F1845303F584139B000022BB
:100804001A60FFF73DFD0546022393FAA3F30A4B52
:100814001968022393FAA3F3B3FA83F303F01F03D3
:10082400012202FA03F31942A1D0FFF729FD401B6C
:100834000228E9D9032094E100100240208190109D
:10084400012292FAA2F2B2FA82F2C04B13449B0044
:1008540000221A60FFF714FD0546022393FAA3F25F
:1008640093FAA3F293FAA3F2B94A516A93FAA3F35F
:10087400B3FA83F303F01F03012202FA03F31942CC
:1008840006D0FFF7FDFC401B0228E6D9032068E1EF
:10089400236813F0040F00F0B380AD4BDB6913F051
:1008A400805F0BD1AA4BDA6942F08052DA61DB69CE
:1008B40003F080530193019B012500E00025A54B23
:1008C4001B6813F4807F16D0A368012B27D063BB69
:1008D40003F1804303F504331A6A22F001021A6219
:1008E4001A6A22F004021A62A368002B5BD0FFF795
:1008F400C7FC064645E0974A136843F480731360C7
:10090400FFF7BEFC0646934B1B6813F4807FDBD1D4
:10091400FFF7B6FC801B6428F5D9032021E18C4A3B
:10092400136A43F001031362DEE7052B09D0884BF9
:100934001A6A22F001021A621A6A22F004021A6286
:10094400D2E7834B1A6A42F004021A621A6A42F02E
:1009540001021A62C8E77E4B196A022393FAA3F3D1
:10096400B3FA83F303F01F03012202FA03F31942DB
:1009740045D1FFF785FC801B41F28833984200F291
:10098400EB80022393FAA3F293FAA3F3B3FA83F36B
:100994005B0943F00203022BDDD0022393FAA3F395
:1009A4006B4B596AD9E7FFF76BFC064615E0684BB9
:1009B400196A022393FAA3F3B3FA83F303F01F0330
:1009C400012202FA03F3194219D0FFF759FC801BE4
:1009D40041F28833984200F2C180022393FAA3F2D1
:1009E40093FAA3F3B3FA83F35B0943F00203022BF4
:1009F400DDD0022393FAA3F3554B596AD9E7B5BB6B
:100A0400A369002B00F0AC80514A526802F00C023A
:100A1400082A00F0A880022B2FD04FF0807393FA9D
:100A2400A3F3B3FA83F303F1845303F584139B0014
:100A340000221A60FFF724FC04464FF0007393FA77
:100A4400A3F3434B19684FF0007393FAA3F3B3FA7B
:100A540083F303F01F03012202FA03F3194271D056
:100A6400FFF70EFC001B0228E7D9032079E0384A7F
:100A7400D36923F08053D361C2E74FF0807393FAB4
:100A8400A3F3B3FA83F303F1845303F584139B00B4
:100A940000221A60FFF7F4FB05464FF0007393FA47
:100AA400A3F32B4B19684FF0007393FAA3F3B3FA33
:100AB40083F303F01F03012202FA03F3194206D061
:100AC400FFF7DEFB401B0228E7D9032049E0204A58
:100AD400D36A23F00F03616A0B43D362536823F490
:100AE4007613216AE06901430B4353604FF080732E
:100AF40093FAA3F3B3FA83F303F1845303F5841352
:100B04009B0001221A60FFF7BBFB04464FF0007301
:100B140093FAA3F30E4B19684FF0007393FAA3F3FF
:100B2400B3FA83F303F01F03012202FA03F3194219
:100B340006D1FFF7A5FB001B0228E7D9032010E02C
:100B440000200EE000200CE001200AE0208190103B
:100B54000010024000700040032002E0032000E087
:100B6400002002B070BD0120FBE700BF184B5B689A
:100B740003F00C02082A29D110B403F470114FF4C5
:100B8400701292FAA2F2B2FA82F221FA02F2114C33
:100B9400A05C0F4AD26A02F00F020F2191FAA1F170
:100BA400B1FA81F1CA402244127C13F4803F07D188
:100BB400094BB3FBF2F303FB00F05DF8044B704701
:100BC400054BB3FBF2F303FB00F0F6E70248704772
:100BD40000100240FC21000800127A00704B1B68D0
:100BE40003F007038B420CD26D4A136823F007030A
:100BF4000B431360136803F00703994201D00120EB
:100C0400704770B5036813F0020F06D0654A536845
:100C140023F0F0038468234353600D4604460368BD
:100C240013F0010F7AD04368012B2FD0022B42D04E
:100C3400022292FAA2F25B4A1068022292FAA2F20B
:100C4400B2FA82F202F01F02012101FA02F210420A
:100C540000F0A48053494A6822F0030213434B6016
:100C6400FFF70EFB06466368012B39D0022B46D0F2
:100C74004C4B5B6813F00C0F50D0FFF701FB801B4B
:100C840041F288339842F3D9032070BD4FF4003207
:100C940092FAA2F2434A10684FF4003292FAA2F296
:100CA400B2FA82F202F01F02012101FA02F21042AA
:100CB400D0D1012070BD4FF0007292FAA2F2394AED
:100CC40010684FF0007292FAA2F2B2FA82F202F0C5
:100CD4001F02012101FA02F21042BBD1012070BDB2
:100CE400304B5B6803F00C03042B17D0FFF7C8FAF2
:100CF400801B41F288339842F2D9032070BD294BFE
:100D04005B6803F00C03082B08D0FFF7B9FA801BCB
:100D140041F288339842F2D9032070BD204B1B68FE
:100D240003F007039D420CD21D4A136823F0070306
:100D34002B431360136803F007039D4201D0012085
:100D440070BD236813F0040F06D0164A536823F4C9
:100D5400E063E1680B435360236813F0080F07D086
:100D6400104A536823F46053216943EAC103536072
:100D7400FFF7FCFE0B4B5B6803F0F003F02292FAE2
:100D8400A2F2B2FA82F2D340074AD35CD840074BAE
:100D940018600020FFF732FA002070BD012070BDFA
:100DA40000200240001002401C220008080000201D
:100DB400014B1868704700BF0800002008B5FFF712
:100DC400F7FF074B5B6803F4E0634FF4E06292FAC9
:100DD400A2F2B2FA82F2D340024AD35CD84008BDF0
:100DE400001002402C22000808B5FFF7E1FF074B72
:100DF4005B6803F460534FF4605292FAA2F2B2FAC1
:100E040082F2D340024AD35CD84008BD00100240AD
:100E14002C220008F0B583B00446036813F4803F25
:100E240048D0A14BDB6913F0805F40F022819E4BD8
:100E3400DA6942F08052DA61DB6903F0805301938E
:100E4400019B0125994B1B6813F4807F00F01381EB
:100E5400954B1B6A13F4407322D0626802F440720B
:100E640093421DD09048016A21F440764FF48033B8
:100E740093FAA3F2B2FA82F28D4F3A4492004FF001
:100E8400010EC2F800E093FAA3F3B3FA83F33B44F0
:100E94009B0000221A60066211F0010F40F00081ED
:100EA400814A136A23F4407361680B431362002D73
:100EB40040F02881236813F0010F06D07A4A136B9F
:100EC40023F00303A1680B431363236813F0020F99
:100ED40006D0754A136B23F44033E1680B43136364
:100EE400236813F0040F06D06F4A136B23F44023D6
:100EF40021690B431363236813F0200F06D06A4A59
:100F0400136B23F01003E1690B431363236813F499
:100F1400003F06D0644A536823F48003616D0B4399
:100F24005360236813F0400F06D05F4A136B23F01D
:100F34002003216A0B431363236813F4802F06D024
:100F4400594A136B23F04003616A0B43136323680C
:100F540013F0080F06D0544A136B23F4401361694D
:100F64000B431363236813F0100F06D04E4A136B20
:100F740023F44003A1690B431363236813F4007F34
:100F840006D0494A536823F40003216B0B43536092
:100F9400236813F0800F06D0434AD36A23F4F8730E
:100FA400A16A0B43D362236813F4807F06D03E4AC0
:100FB400D36A23F47853E16A0B43D362236813F4AE
:100FC400805F06D0384A136B23F48073616B0B4344
:100FD4001363236813F4005F06D0334A136B23F4BE
:100FE4000073216C0B431363236813F4801F06D032
:100FF4002D4A136B23F08073A16B0B431363236897
:1010040013F4001F06D0284A136B23F00073E16B1E
:101014000B431363236813F4800F06D0224A136B27
:1010240023F48063616C0B431363236813F4000F90
:1010340006D01D4A136B23F40063A16C0B431363A6
:10104400236813F0807F06D0174A136B23F40053F0
:10105400E16C0B431363236813F0007F59D0124AE9
:10106400136B23F40043216D0B431363002003B07F
:10107400F0BD0025E6E60D4A136843F4807313605F
:10108400FFF7FEF80646094B1B6813F4807F7FF4D4
:10109400DFAEFFF7F5F8801B6428F4D90320E6E7F8
:1010A400FFF7EEF806461BE0001002400070004017
:1010B40000819010184B196A022393FAA3F3B3FA30
:1010C40083F303F01F03012202FA03F319427FF4AE
:1010D400E7AEFFF7D5F8801B41F28833984216D863
:1010E400022393FAA3F293FAA3F3B3FA83F35B090B
:1010F40043F00203022BDDD0022393FAA3F3064B41
:10110400596AD9E7D36923F08053D361D2E6032027
:10111400ADE70020ABE700BF0010024010B4036A43
:10112400046A24F001040462846924F0F00444EAAB
:10113400021223F00A030B43826103625DF8044B3D
:10114400704710B4036A23F0100303628469036ACE
:1011540024F4704444EA023223F0A00343EA011366
:10116400826103625DF8044B7047836823F0700367
:1011740041F007010B4383607047022380F83D3040
:101184000268136843F001031360012380F83D30C3
:1011940000207047704700000368324A904212D022
:1011A400B0F1804F0FD0A2F5943290420BD002F5EB
:1011B4008062904207D002F59632904203D002F545
:1011C400E052904203D123F070034A681343254A46
:1011D40090421ED0B0F1804F1BD0A2F594329042C1
:1011E40017D002F58062904213D002F596329042F5
:1011F4000FD002F5406290420BD002F5806290421B
:1012040007D002F58062904203D002F5006290425A
:1012140003D123F44073CA68134323F080034A695B
:10122400134303608B68C3620B6883620D4B98425F
:1012340013D003F5006398420FD003F5406398423E
:101244000BD003F58063984207D003F5806398427E
:1012540003D003F50063984201D10B6903630123B2
:1012640043617047002C0140A8B110B5044690F8C2
:101274003D305BB1022384F83D30211D2068FFF727
:101284008BFF012384F83D30002010BD80F83C30F2
:1012940000F090FEEEE701207047A8B110B50446B7
:1012A40090F83D305BB1022384F83D30211D206865
:1012B400FFF772FF012384F83D30002010BD80F851
:1012C4003C30FFF767FFEEE70120704730B4036A54
:1012D40023F001030362036A4468826922F48032C2
:1012E40022F073020D682A4323F002038D682B4316
:1012F400204DA84213D005F50065A8420FD005F58E
:101304004065A8420BD005F58065A84207D005F5D5
:101314008065A84203D005F50065A84205D123F0F5
:101324000803CD682B4323F00403124DA84213D0C5
:1013340005F50065A8420FD005F54065A8420BD01D
:1013440005F58065A84207D005F58065A84203D05D
:1013540005F50065A84205D124F440744D692C4379
:101364008D692C43446082614A684263036230BCE5
:10137400704700BF002C014030B4036A23F010030F
:101384000362036A4468826922F0807222F4E642AE
:101394000D6842EA052223F020038D6843EA051311
:1013A4001C4DA8422DD005F50065A84229D005F5AD
:1013B400E055A84225D0174DA84213D005F5006585
:1013C400A8420FD005F54065A8420BD005F580650D
:1013D400A84207D005F58065A84203D005F500654D
:1013E400A84207D124F440644D6944EA85048D6918
:1013F40044EA8504446082614A688263036230BCC3
:10140400704723F08003CD6843EA051323F04003BB
:10141400D1E700BF002C014030B4036A23F4807389
:101424000362036A4468C26922F4803222F07302C0
:101434000D682A4323F400738D6843EA05231C4D89
:10144400A8422DD005F50065A84229D005F5E05540
:10145400A84225D0164DA84213D005F50065A84230
:101464000FD005F54065A8420BD005F58065A8426C
:1014740007D005F58065A84203D005F50065A842AC
:1014840007D124F440544D6944EA05148D6944EAB3
:1014940005144460C2614A68C263036230BC704789
:1014A40023F40063CD6843EA052323F48063D1E782
:1014B400002C014030B4036A23F480530362036AAE
:1014C4004468C26922F0807222F4E6420D6842EA5E
:1014D400052223F400538D6843EA0533114DA842D5
:1014E40013D005F50065A8420FD005F54065A84264
:1014F4000BD005F58065A84207D005F58065A842A4
:1015040003D005F50065A84204D124F480444D6954
:1015140044EA85144460C2614A680264036230BCD0
:10152400704700BF002C014010B4846824F47F4449
:1015340042EA032319430C4384605DF8044B70476B
:1015440090F83C30012B00F0828010B50446012352
:1015540080F83C30022380F83D30026890683D4BAF
:10156400034093600B68402B5DD010D9702B40D0A2
:101574001FD8502B4DD0602B34D1CA6849682068DD
:10158400FFF7DFFD60212068FFF7EFFD2AE0102B55
:1015940053D008D9202B55D0302B23D130212068AB
:1015A400FFF7E3FD1EE0EBB900212068FFF7DDFD46
:1015B40018E0B3F5805F0ED0B3F5005F12D1CB68AD
:1015C4004A6889682068FFF7AFFF2268936843F48C
:1015D4008043936006E02268936823F4803323F009
:1015E40007039360012384F83D30002084F83C0015
:1015F40010BDCB684A6889682068FFF795FF2268A8
:10160400936823F4803323F0770343F077039360E4
:10161400E8E7CA6849682068FFF780FD5021206820
:10162400FFF7A3FDDEE7CA6849682068FFF776FD87
:1016340040212068FFF799FDD4E710212068FFF7C7
:1016440094FDCFE720212068FFF78FFDCAE7022031
:10165400704700BF8800FEFF30B4036A23F4803370
:101664000362036A4468426D22F4803222F07002FD
:101674000D682A4323F400338D6843EA0543114D72
:10168400A84213D005F50065A8420FD005F54065C2
:10169400A8420BD005F58065A84207D005F5806502
:1016A400A84203D005F50065A84204D124F480348F
:1016B4004D6944EA0524446042654A6882650362D0
:1016C40030BC7047002C014030B4036A23F480130B
:1016D4000362036A4468426D22F0807222F4E0429D
:1016E4000D6842EA052223F400138D6843EA05538A
:1016F400114DA84213D005F50065A8420FD005F599
:101704004065A8420BD005F58065A84207D005F5D1
:101714008065A84203D005F50065A84204D124F4ED
:1017240080244D6944EA8524446042654A68C26560
:10173400036230BC704700BF002C014090F83C307D
:10174400012B34D010B50446012380F83C30022329
:1017540080F83D30142A0FD8DFE802F00B0E0E0E8D
:10176400150E0E0E190E0E0E1D0E0E0E210E0E0E61
:1017740025000068FFF7AAFD012384F83D3000200E
:1017840084F83C0010BD0068FFF7F6FDF4E700683C
:10179400FFF742FEF0E70068FFF78CFEECE7006815
:1017A400FFF75AFFE8E70068FFF78EFFE4E702203F
:1017B4007047000090F83C30012B27D030B401234F
:1017C40080F83C30026853689468114DAA4218D0DE
:1017D40005F50065AA4214D005F5E055AA4210D0DB
:1017E40023F070030D682B4324F08004896821439F
:1017F400536003689960002380F83C30184630BC7D
:10180400704723F470034D682B43E9E702207047C7
:10181400002C014038B504468368026913434269C9
:101824001343C2691343016808689B4A0240134387
:101834000B602268536823F44053E1680B43536000
:10184400A369226A134321688A6822F4306213432D
:101854008B602568914B9D421FD0914B9D422FD0A8
:10186400904B9D4246D0904B9D425DD08F4B9D4204
:1018740074D01023E269B2F5004F00F08B80082B7E
:1018840000F20781DFE813F0CE00D900E40005017F
:10189400F000050105010501FB0003F558431B6B2E
:1018A40003F00303032B09D8DFE803F002040672F4
:1018B4000123DFE70423DDE70823DBE71023D9E76F
:1018C40003F5E6331B6B03F44033B3F5803F0BD0D1
:1018D40007D9B3F5003F09D0B3F5403F08D102233F
:1018E400C8E72BB90023C5E70423C3E70823C1E7EE
:1018F4001023BFE703F5E4331B6B03F44023B3F574
:10190400802F0BD007D9B3F5002F09D0B3F5402FA2
:1019140008D10223AEE72BB90023ABE70423A9E7E0
:101924000823A7E71023A5E703F5E2331B6B03F4B1
:101934004013B3F5801F0BD007D9B3F5001F09D0AE
:10194400B3F5401F08D1022394E72BB9002391E794
:1019540004238FE708238DE710238BE703F5E03397
:101964001B6B03F44003B3F5800F0BD007D9B3F519
:10197400000F09D0B3F5400F08D102237AE72BB941
:10198400002377E7042375E7082373E7102371E73F
:1019940002236FE7082B42D8DFE803F00517224142
:1019A4002D4141413800FFF709FA6268530803EBFF
:1019B4004003B3FBF2F39BB2002023F00F02C3F306
:1019C400420313432268D36038BDFFF70DFA6268FF
:1019D400530803EB4003B3FBF2F39BB20020ECE7A4
:1019E4006268530803F5740303F51053B3FBF2F371
:1019F4009BB20020E1E7FFF7B9F86268530803EBF4
:101A04004003B3FBF2F39BB20020D6E762685308AD
:101A140003F58033B3FBF2F39BB20020CDE7012042
:101A24000023CAE7FFF7CAF9636800EB5300B0FB71
:101A3400F3F080B2E860002038BDFFF7D5F96368A1
:101A440000EB5300B0FBF3F080B2E860002038BD37
:101A54006268530803F5F40303F59053B3FBF2F300
:101A64009BB2EB60002038BDFFF780F8636800EBA1
:101A74005300B0FBF3F080B2E860002038BD626828
:101A8400530803F50043B3FBF2F39BB2EB60002071
:101A940038BD012038BD00BFF369FFEF00380140B5
:101AA4000044004000480040004C0040005000400A
:101AB400436A13F0010F06D00268536823F400331D
:101AC400816A0B435360436A13F0020F06D0026825
:101AD400536823F48033C16A0B435360436A13F0A1
:101AE400040F06D00268536823F48023016B0B4370
:101AF4005360436A13F0080F06D00268536823F456
:101B04000043416B0B435360436A13F0100F06D03C
:101B14000268936823F48053816B0B439360436A98
:101B240013F0200F06D00268936823F40053C16BAE
:101B34000B439360436A13F0400F0AD00268536862
:101B440023F48013016C0B435360036CB3F5801FC3
:101B54000BD0436A13F0800F06D00268536823F455
:101B64000023816C0B43536070470268536823F46D
:101B7400C003416C0B435360EBE72DE9F04105468C
:101B84000F4616469846069C2B68DB6937EA030322
:101B94000CBF01230023B3421ED1B4F1FF3FF3D0A5
:101BA4002CB1FEF76DFBA0EB08008442ECD22A684E
:101BB400136823F4D07313602A68936823F0010335
:101BC4009360202385F8693085F86A30002385F80E
:101BD40068300320BDE8F0810020BDE8F08130B515
:101BE40083B004460023C366FEF74AFB0546236818
:101BF4001B6813F0080F0ED123681B6813F0040F41
:101C040017D1202384F8693084F86A30002084F8DE
:101C1400680003B030BD6FF07E430093034600229A
:101C24004FF400112046FFF7A8FF0028E4D003205A
:101C3400EFE76FF07E4300932B4600224FF48001C0
:101C44002046FFF79AFF0028DBD00320E1E778B3B2
:101C540010B5044690F869300BB3242384F8693036
:101C64002268136823F0010313602046FFF7D2FDB6
:101C740001281FD0636ABBB92268536823F49043D8
:101C840053602268936823F02A03936022681368E0
:101C940043F0010313602046FFF7A1FF10BD80F855
:101CA400683000F029FAD8E72046FFF701FFE3E7A0
:101CB4000120704710BD000010B58AB0214B5A694D
:101CC40042F400225A615A6902F400220192019AF4
:101CD4005A6942F480025A615A6902F480020292FB
:101CE400029A5A6942F400325A615A6902F4003283
:101CF4000392039A5A6942F480225A615B6903F49D
:101D040080230493049B002231214FF09040FEF77E
:101D14001BFC4FF4005305930B4B069300240794CC
:101D240005A90A48FEF736FB3123059301230693E0
:101D34000794089405A94FF09040FEF72BFB0AB0D6
:101D440010BD00BF00100240000021100008004830
:101D5400884201D00020704701207047FEE7000050
:101D640000B5A7B001221C924FF480331D931F923B
:101D74000222229223934FF4E01324930023259309
:101D84001CA8FEF7EBFB50BB0F23179302211891FD
:101D9400002319934FF480631A931B9317A8FEF73B
:101DA4001DFF00BB144B0193002304930F9301A860
:101DB400FFF730F8D8B9FEF7FBFF104BA3FB003058
:101DC4008009FEF7BBFA0420FEF7CEFA0022114682
:101DD4004FF0FF30FEF780FA27B05DF804FBB32123
:101DE4000748FFF7BBFFC0210548FFF7B7FFC8212D
:101DF4000348FFF7B3FF00BF02001000D34D621089
:101E04003422000830B587B0FEF71CFAFFF7A8FFAC
:101E1400FFF752FF00F050F900F0F8F82348FFF7FD
:101E2400ACF9202301930123029300230393049329
:101E340001A94FF09040FEF7ADFA63251B4B1B68D8
:101E44005C6A002232212046FFF782FFE0B90022BB
:101E540029462046FFF77CFF0028EFD0002201210D
:101E64004FF09040FEF770FB002210214FF090409D
:101E7400FEF76AFB20214FF09040FEF76AFB4FF417
:101E84007A70FEF703FAD9E7012211464FF0904029
:101E9400FEF75AFB012210214FF09040FEF754FB4D
:101EA400642D01D06425D2E79525D0E72C000020CD
:101EB40000B583B0214B9A6942F001029A619A6994
:101EC40002F001020092009ADA6942F08052DA616B
:101ED400DB6903F080530193019B0720FEF7EAF9C5
:101EE400002211466FF00B00FEF7F6F900221146AE
:101EF4006FF00A00FEF7F0F9002211466FF00900B6
:101F0400FEF7EAF9002211466FF00400FEF7E4F947
:101F1400002211466FF00300FEF7DEF9002211469D
:101F24006FF00100FEF7D8F9002211464FF0FF30A0
:101F3400FEF7D2F903B05DF804FB00BF00100240C5
:101F440008B5FEF791F9FEF720FA08BD1549D1F856
:101F5400883043F47003C1F88830134B1A6842F098
:101F640001021A605868114A02405A601A6822F045
:101F7400847222F480321A601A6822F480221A6071
:101F84005A6822F4FE025A60DA6A22F00F02DA6218
:101F9400186B074A02401A6300229A604FF00063EC
:101FA4008B60704700ED00E0001002400CC07FF829
:101FB400CCFC00FF0368B3F1804F00D0704782B0BF
:101FC40003F50433DA6942F00102DA61DB6903F0F4
:101FD40001030193019B02B0F0E70368B3F1804F62
:101FE40000D0704700B587B04FF40043019302233B
:101FF40002930023039304930123059301A94FF053
:102004009040FEF7C7F907B05DF804FB00B58FB048
:1020140027484FF0804303604FF4B46343600023C8
:1020240083604FF4C872C26003618361FFF71CF9D7
:1020340020BB0EA94FF4805341F8103D1C48FFF714
:102044007FFA00BB1A48FFF728F908BB002307935F
:10205400099307A91648FFF7ADFBF0B900220092D7
:1020640001920292049269461148FFF767FBC8B9CE
:102074000F48FFF7B2FF0FB05DF804FB40210D4895
:10208400FFF76CFED5E746210A48FFF767FED9E75C
:102094004B210848FFF762FED8E752210548FFF7B5
:1020A4005DFEDBE75B210348FFF758FEE0E700BF76
:1020B4002C0000204422000808B50C480C4B036097
:1020C4004FF41643436000238360C36003610C2212
:1020D40042618361C36103624362FFF7B8FD00B9E3
:1020E40008BD44210348FFF739FEF9E76C000020DE
:1020F40000440040542200080268114B9A4200D068
:10210400704700B587B003F5E633DA6942F400326C
:10211400DA61DB6903F400330093009B0C23019321
:10212400022302930023039304930723059301A935
:102134004FF09040FEF72EF907B05DF804FB00BFA6
:1021440000440040DFF834D0002103E00C4B5B581E
:10215400435004310B480C4B42189A42F6D30B4AB5
:1021640002E0002342F8043B094B9A42F9D3FFF7FB
:10217400EDFE00F011F8FFF745FEFEE70000012038
:102184006C220008000000200C0000200C0000203D
:10219400DC000020FEE7000070B50D4E0D4CA41BC2
:1021A400A4100025A54209D10B4E0C4C00F018F8E0
:1021B400A41BA4100025A54205D170BD56F82530F6
:1021C40098470135EEE756F8253098470135F2E790
:1021D40064220008642200086422000868220008BF
:1021E400F8B500BFF8BC08BC9E467047F8B500BF00
:0821F400F8BC08BC9E467047D0
:1021FC0002030405060708090A0B0C0D0E0F10103C
:10220C000102030405060708090A0B0C0D0E0F103A
:10221C00000000000000000001020304060708098A
:10222C0000000000010203042E2E2F5372632F6D49
:10223C0061696E2E630000002E2E2F5372632F7473
:10224C00696D2E63000000002E2E2F5372632F75C4
:08225C00736172742E6300002F
:04226400B9010008B4
:0422680095010008D4
:0C226C00010000001000000000127A00C9
:040000050800214985
:00000001FF
